{
  "contractName": "Certificate",
  "abi": [
    {
      "inputs": [
        {
          "internalType": "string",
          "name": "_activeCode",
          "type": "string"
        },
        {
          "internalType": "string",
          "name": "_documentHash",
          "type": "string"
        },
        {
          "internalType": "string",
          "name": "_jsonHash",
          "type": "string"
        },
        {
          "internalType": "uint256",
          "name": "_disableTime",
          "type": "uint256"
        },
        {
          "internalType": "string",
          "name": "_certificateName",
          "type": "string"
        },
        {
          "internalType": "string",
          "name": "_orgName",
          "type": "string"
        }
      ],
      "stateMutability": "nonpayable",
      "type": "constructor"
    },
    {
      "anonymous": false,
      "inputs": [
        {
          "indexed": true,
          "internalType": "address",
          "name": "user",
          "type": "address"
        },
        {
          "indexed": false,
          "internalType": "uint256",
          "name": "timestamp",
          "type": "uint256"
        }
      ],
      "name": "CertificateActivated",
      "type": "event"
    },
    {
      "anonymous": false,
      "inputs": [
        {
          "indexed": false,
          "internalType": "enum Certificate.State",
          "name": "newState",
          "type": "uint8"
        },
        {
          "indexed": false,
          "internalType": "uint256",
          "name": "disableTime",
          "type": "uint256"
        },
        {
          "indexed": false,
          "internalType": "uint256",
          "name": "timestamp",
          "type": "uint256"
        }
      ],
      "name": "StateUpdated",
      "type": "event"
    },
    {
      "inputs": [],
      "name": "activeTime",
      "outputs": [
        {
          "internalType": "uint256",
          "name": "",
          "type": "uint256"
        }
      ],
      "stateMutability": "view",
      "type": "function"
    },
    {
      "inputs": [],
      "name": "certificateName",
      "outputs": [
        {
          "internalType": "string",
          "name": "",
          "type": "string"
        }
      ],
      "stateMutability": "view",
      "type": "function"
    },
    {
      "inputs": [],
      "name": "deployTime",
      "outputs": [
        {
          "internalType": "uint256",
          "name": "",
          "type": "uint256"
        }
      ],
      "stateMutability": "view",
      "type": "function"
    },
    {
      "inputs": [],
      "name": "disableTime",
      "outputs": [
        {
          "internalType": "uint256",
          "name": "",
          "type": "uint256"
        }
      ],
      "stateMutability": "view",
      "type": "function"
    },
    {
      "inputs": [],
      "name": "documentHash",
      "outputs": [
        {
          "internalType": "string",
          "name": "",
          "type": "string"
        }
      ],
      "stateMutability": "view",
      "type": "function"
    },
    {
      "inputs": [],
      "name": "jsonHash",
      "outputs": [
        {
          "internalType": "string",
          "name": "",
          "type": "string"
        }
      ],
      "stateMutability": "view",
      "type": "function"
    },
    {
      "inputs": [],
      "name": "orgName",
      "outputs": [
        {
          "internalType": "string",
          "name": "",
          "type": "string"
        }
      ],
      "stateMutability": "view",
      "type": "function"
    },
    {
      "inputs": [],
      "name": "state",
      "outputs": [
        {
          "internalType": "enum Certificate.State",
          "name": "",
          "type": "uint8"
        }
      ],
      "stateMutability": "view",
      "type": "function"
    },
    {
      "inputs": [],
      "name": "userAddress",
      "outputs": [
        {
          "internalType": "address",
          "name": "",
          "type": "address"
        }
      ],
      "stateMutability": "view",
      "type": "function"
    },
    {
      "inputs": [
        {
          "internalType": "address",
          "name": "_userAddress",
          "type": "address"
        },
        {
          "internalType": "string",
          "name": "_activeCode",
          "type": "string"
        },
        {
          "internalType": "string",
          "name": "_data",
          "type": "string"
        }
      ],
      "name": "activateCertificate",
      "outputs": [],
      "stateMutability": "nonpayable",
      "type": "function"
    },
    {
      "inputs": [
        {
          "internalType": "enum Certificate.State",
          "name": "_newState",
          "type": "uint8"
        },
        {
          "internalType": "uint256",
          "name": "_disableTime",
          "type": "uint256"
        }
      ],
      "name": "updateState",
      "outputs": [],
      "stateMutability": "nonpayable",
      "type": "function"
    },
    {
      "inputs": [],
      "name": "getCertificate",
      "outputs": [
        {
          "internalType": "string",
          "name": "",
          "type": "string"
        },
        {
          "internalType": "string",
          "name": "",
          "type": "string"
        },
        {
          "internalType": "string",
          "name": "",
          "type": "string"
        },
        {
          "internalType": "enum Certificate.State",
          "name": "",
          "type": "uint8"
        },
        {
          "internalType": "uint256",
          "name": "",
          "type": "uint256"
        },
        {
          "internalType": "uint256",
          "name": "",
          "type": "uint256"
        },
        {
          "internalType": "string",
          "name": "",
          "type": "string"
        },
        {
          "internalType": "string",
          "name": "",
          "type": "string"
        },
        {
          "internalType": "address",
          "name": "",
          "type": "address"
        }
      ],
      "stateMutability": "view",
      "type": "function"
    }
  ],
  "bytecode": "0x60806040523480156200001157600080fd5b5060405162001e8e38038062001e8e8339818101604052810190620000379190620003fa565b336000806101000a81548173ffffffffffffffffffffffffffffffffffffffff021916908373ffffffffffffffffffffffffffffffffffffffff16021790555085600790805190602001906200008f92919062000172565b506201518042620000a1919062000560565b6008819055508460039080519060200190620000bf92919062000172565b508360049080519060200190620000d892919062000172565b506000600b60006101000a81548160ff02191690836002811115620001025762000101620005bd565b5b021790555042600a8190555062015180836200011f9190620005ec565b600a546200012e919062000560565b60098190555081600590805190602001906200014c92919062000172565b5080600690805190602001906200016592919062000172565b50505050505050620006b1565b82805462000180906200067c565b90600052602060002090601f016020900481019282620001a45760008555620001f0565b82601f10620001bf57805160ff1916838001178555620001f0565b82800160010185558215620001f0579182015b82811115620001ef578251825591602001919060010190620001d2565b5b509050620001ff919062000203565b5090565b5b808211156200021e57600081600090555060010162000204565b5090565b6000604051905090565b600080fd5b600080fd5b600080fd5b600080fd5b6000601f19601f8301169050919050565b7f4e487b7100000000000000000000000000000000000000000000000000000000600052604160045260246000fd5b6200028b8262000240565b810181811067ffffffffffffffff82111715620002ad57620002ac62000251565b5b80604052505050565b6000620002c262000222565b9050620002d0828262000280565b919050565b600067ffffffffffffffff821115620002f357620002f262000251565b5b620002fe8262000240565b9050602081019050919050565b60005b838110156200032b5780820151818401526020810190506200030e565b838111156200033b576000848401525b50505050565b6000620003586200035284620002d5565b620002b6565b9050828152602081018484840111156200037757620003766200023b565b5b620003848482856200030b565b509392505050565b600082601f830112620003a457620003a362000236565b5b8151620003b684826020860162000341565b91505092915050565b6000819050919050565b620003d481620003bf565b8114620003e057600080fd5b50565b600081519050620003f481620003c9565b92915050565b60008060008060008060c087890312156200041a57620004196200022c565b5b600087015167ffffffffffffffff8111156200043b576200043a62000231565b5b6200044989828a016200038c565b965050602087015167ffffffffffffffff8111156200046d576200046c62000231565b5b6200047b89828a016200038c565b955050604087015167ffffffffffffffff8111156200049f576200049e62000231565b5b620004ad89828a016200038c565b9450506060620004c089828a01620003e3565b935050608087015167ffffffffffffffff811115620004e457620004e362000231565b5b620004f289828a016200038c565b92505060a087015167ffffffffffffffff81111562000516576200051562000231565b5b6200052489828a016200038c565b9150509295509295509295565b7f4e487b7100000000000000000000000000000000000000000000000000000000600052601160045260246000fd5b60006200056d82620003bf565b91506200057a83620003bf565b9250827fffffffffffffffffffffffffffffffffffffffffffffffffffffffffffffffff03821115620005b257620005b162000531565b5b828201905092915050565b7f4e487b7100000000000000000000000000000000000000000000000000000000600052602160045260246000fd5b6000620005f982620003bf565b91506200060683620003bf565b9250817fffffffffffffffffffffffffffffffffffffffffffffffffffffffffffffffff048311821515161562000642576200064162000531565b5b828202905092915050565b7f4e487b7100000000000000000000000000000000000000000000000000000000600052602260045260246000fd5b600060028204905060018216806200069557607f821691505b602082108103620006ab57620006aa6200064d565b5b50919050565b6117cd80620006c16000396000f3fe608060405234801561001057600080fd5b50600436106100b35760003560e01c8063ac1a983311610071578063ac1a98331461016a578063ae15eb8e14610188578063b0dc3c5f146101ae578063c19d93fb146101ca578063cb8c478a146101e8578063e4128fb314610206576100b3565b806273c769146100b85780631386dc2d146100d6578063797bec77146100f45780637a40624b146101125780638af5ff6514610130578063948e19681461014c575b600080fd5b6100c0610224565b6040516100cd9190610d7d565b60405180910390f35b6100de61022a565b6040516100eb9190610e31565b60405180910390f35b6100fc6102b8565b6040516101099190610e31565b60405180910390f35b61011a610346565b6040516101279190610d7d565b60405180910390f35b61014a60048036038101906101459190610eb8565b61034c565b005b610154610467565b6040516101619190610e31565b60405180910390f35b6101726104f5565b60405161017f9190610e31565b60405180910390f35b610190610583565b6040516101a599989796959493929190610fb0565b60405180910390f35b6101c860048036038101906101c391906111c1565b6108ac565b005b6101d2610b08565b6040516101df919061124c565b60405180910390f35b6101f0610b1b565b6040516101fd9190610d7d565b60405180910390f35b61020e610b21565b60405161021b9190611267565b60405180910390f35b60095481565b60068054610237906112b1565b80601f0160208091040260200160405190810160405280929190818152602001828054610263906112b1565b80156102b05780601f10610285576101008083540402835291602001916102b0565b820191906000526020600020905b81548152906001019060200180831161029357829003601f168201915b505050505081565b600380546102c5906112b1565b80601f01602080910402602001604051908101604052809291908181526020018280546102f1906112b1565b801561033e5780601f106103135761010080835404028352916020019161033e565b820191906000526020600020905b81548152906001019060200180831161032157829003601f168201915b505050505081565b600a5481565b60008054906101000a900473ffffffffffffffffffffffffffffffffffffffff1673ffffffffffffffffffffffffffffffffffffffff163373ffffffffffffffffffffffffffffffffffffffff16146103da576040517f08c379a00000000000000000000000000000000000000000000000000000000081526004016103d190611354565b60405180910390fd5b62015180816103e991906113a3565b600a546103f691906113fd565b60098190555081600b60006101000a81548160ff0219169083600281111561042157610420610ef8565b5b02179055507fd80c9d2d2f839073c7e422bfc807665defcbcfc646822d4879ddd1404017b869826009544260405161045b93929190611453565b60405180910390a15050565b60058054610474906112b1565b80601f01602080910402602001604051908101604052809291908181526020018280546104a0906112b1565b80156104ed5780601f106104c2576101008083540402835291602001916104ed565b820191906000526020600020905b8154815290600101906020018083116104d057829003601f168201915b505050505081565b60048054610502906112b1565b80601f016020809104026020016040519081016040528092919081815260200182805461052e906112b1565b801561057b5780601f106105505761010080835404028352916020019161057b565b820191906000526020600020905b81548152906001019060200180831161055e57829003601f168201915b505050505081565b606080606060008060006060806000600260036004600b60009054906101000a900460ff16600a546009546005600660008054906101000a900473ffffffffffffffffffffffffffffffffffffffff168880546105df906112b1565b80601f016020809104026020016040519081016040528092919081815260200182805461060b906112b1565b80156106585780601f1061062d57610100808354040283529160200191610658565b820191906000526020600020905b81548152906001019060200180831161063b57829003601f168201915b5050505050985087805461066b906112b1565b80601f0160208091040260200160405190810160405280929190818152602001828054610697906112b1565b80156106e45780601f106106b9576101008083540402835291602001916106e4565b820191906000526020600020905b8154815290600101906020018083116106c757829003601f168201915b505050505097508680546106f7906112b1565b80601f0160208091040260200160405190810160405280929190818152602001828054610723906112b1565b80156107705780601f1061074557610100808354040283529160200191610770565b820191906000526020600020905b81548152906001019060200180831161075357829003601f168201915b50505050509650828054610783906112b1565b80601f01602080910402602001604051908101604052809291908181526020018280546107af906112b1565b80156107fc5780601f106107d1576101008083540402835291602001916107fc565b820191906000526020600020905b8154815290600101906020018083116107df57829003601f168201915b5050505050925081805461080f906112b1565b80601f016020809104026020016040519081016040528092919081815260200182805461083b906112b1565b80156108885780601f1061085d57610100808354040283529160200191610888565b820191906000526020600020905b81548152906001019060200180831161086b57829003601f168201915b50505050509150985098509850985098509850985098509850909192939495969798565b60008060028111156108c1576108c0610ef8565b5b600b60009054906101000a900460ff1660028111156108e3576108e2610ef8565b5b146108fc600b60009054906101000a900460ff16610b47565b60405160200161090c9190611584565b6040516020818303038152906040529061095c576040517f08c379a00000000000000000000000000000000000000000000000000000000081526004016109539190610e31565b60405180910390fd5b506008544211156109a2576040517f08c379a000000000000000000000000000000000000000000000000000000000815260040161099990611623565b60405180910390fd5b826040516020016109b39190611643565b6040516020818303038152906040528051906020012060076040516020016109db91906116ee565b6040516020818303038152906040528051906020012014610a31576040517f08c379a0000000000000000000000000000000000000000000000000000000008152600401610a2890611777565b60405180910390fd5b83600160006101000a81548173ffffffffffffffffffffffffffffffffffffffff021916908373ffffffffffffffffffffffffffffffffffffffff1602179055506001600b60006101000a81548160ff02191690836002811115610a9857610a97610ef8565b5b02179055508160029080519060200190610ab3929190610cc1565b508373ffffffffffffffffffffffffffffffffffffffff167fa38f42bcea37e91a0edf5c8266d4f44854ea57559e2277111a14685ab81ea42742604051610afa9190610d7d565b60405180910390a250505050565b600b60009054906101000a900460ff1681565b60085481565b600160009054906101000a900473ffffffffffffffffffffffffffffffffffffffff1681565b606060006002811115610b5d57610b5c610ef8565b5b826002811115610b7057610b6f610ef8565b5b03610bb2576040518060400160405280600881526020017f496e6163746976650000000000000000000000000000000000000000000000008152509050610cbc565b60016002811115610bc657610bc5610ef8565b5b826002811115610bd957610bd8610ef8565b5b03610c1b576040518060400160405280600681526020017f41637469766500000000000000000000000000000000000000000000000000008152509050610cbc565b600280811115610c2e57610c2d610ef8565b5b826002811115610c4157610c40610ef8565b5b03610c83576040518060400160405280600881526020017f44697361626c65640000000000000000000000000000000000000000000000008152509050610cbc565b6040518060400160405280600781526020017f556e6b6e6f776e0000000000000000000000000000000000000000000000000081525090505b919050565b828054610ccd906112b1565b90600052602060002090601f016020900481019282610cef5760008555610d36565b82601f10610d0857805160ff1916838001178555610d36565b82800160010185558215610d36579182015b82811115610d35578251825591602001919060010190610d1a565b5b509050610d439190610d47565b5090565b5b80821115610d60576000816000905550600101610d48565b5090565b6000819050919050565b610d7781610d64565b82525050565b6000602082019050610d926000830184610d6e565b92915050565b600081519050919050565b600082825260208201905092915050565b60005b83811015610dd2578082015181840152602081019050610db7565b83811115610de1576000848401525b50505050565b6000601f19601f8301169050919050565b6000610e0382610d98565b610e0d8185610da3565b9350610e1d818560208601610db4565b610e2681610de7565b840191505092915050565b60006020820190508181036000830152610e4b8184610df8565b905092915050565b6000604051905090565b600080fd5b600080fd5b60038110610e7457600080fd5b50565b600081359050610e8681610e67565b92915050565b610e9581610d64565b8114610ea057600080fd5b50565b600081359050610eb281610e8c565b92915050565b60008060408385031215610ecf57610ece610e5d565b5b6000610edd85828601610e77565b9250506020610eee85828601610ea3565b9150509250929050565b7f4e487b7100000000000000000000000000000000000000000000000000000000600052602160045260246000fd5b60038110610f3857610f37610ef8565b5b50565b6000819050610f4982610f27565b919050565b6000610f5982610f3b565b9050919050565b610f6981610f4e565b82525050565b600073ffffffffffffffffffffffffffffffffffffffff82169050919050565b6000610f9a82610f6f565b9050919050565b610faa81610f8f565b82525050565b6000610120820190508181036000830152610fcb818c610df8565b90508181036020830152610fdf818b610df8565b90508181036040830152610ff3818a610df8565b90506110026060830189610f60565b61100f6080830188610d6e565b61101c60a0830187610d6e565b81810360c083015261102e8186610df8565b905081810360e08301526110428185610df8565b9050611052610100830184610fa1565b9a9950505050505050505050565b61106981610f8f565b811461107457600080fd5b50565b60008135905061108681611060565b92915050565b600080fd5b600080fd5b7f4e487b7100000000000000000000000000000000000000000000000000000000600052604160045260246000fd5b6110ce82610de7565b810181811067ffffffffffffffff821117156110ed576110ec611096565b5b80604052505050565b6000611100610e53565b905061110c82826110c5565b919050565b600067ffffffffffffffff82111561112c5761112b611096565b5b61113582610de7565b9050602081019050919050565b82818337600083830152505050565b600061116461115f84611111565b6110f6565b9050828152602081018484840111156111805761117f611091565b5b61118b848285611142565b509392505050565b600082601f8301126111a8576111a761108c565b5b81356111b8848260208601611151565b91505092915050565b6000806000606084860312156111da576111d9610e5d565b5b60006111e886828701611077565b935050602084013567ffffffffffffffff81111561120957611208610e62565b5b61121586828701611193565b925050604084013567ffffffffffffffff81111561123657611235610e62565b5b61124286828701611193565b9150509250925092565b60006020820190506112616000830184610f60565b92915050565b600060208201905061127c6000830184610fa1565b92915050565b7f4e487b7100000000000000000000000000000000000000000000000000000000600052602260045260246000fd5b600060028204905060018216806112c957607f821691505b6020821081036112dc576112db611282565b5b50919050565b7f5b43657274696669636174655d5b416464726573734572725d3a4e6f7420746860008201527f6520636f6e7472616374206f776e65722e000000000000000000000000000000602082015250565b600061133e603183610da3565b9150611349826112e2565b604082019050919050565b6000602082019050818103600083015261136d81611331565b9050919050565b7f4e487b7100000000000000000000000000000000000000000000000000000000600052601160045260246000fd5b60006113ae82610d64565b91506113b983610d64565b9250817fffffffffffffffffffffffffffffffffffffffffffffffffffffffffffffffff04831182151516156113f2576113f1611374565b5b828202905092915050565b600061140882610d64565b915061141383610d64565b9250827fffffffffffffffffffffffffffffffffffffffffffffffffffffffffffffffff0382111561144857611447611374565b5b828201905092915050565b60006060820190506114686000830186610f60565b6114756020830185610d6e565b6114826040830184610d6e565b949350505050565b600081905092915050565b7f5b43657274696669636174655d5b53746174654572725d3a436f6e747261637460008201527f2069732000000000000000000000000000000000000000000000000000000000602082015250565b60006114f160248361148a565b91506114fc82611495565b602482019050919050565b600061151282610d98565b61151c818561148a565b935061152c818560208601610db4565b80840191505092915050565b7f2e00000000000000000000000000000000000000000000000000000000000000600082015250565b600061156e60018361148a565b915061157982611538565b600182019050919050565b600061158f826114e4565b915061159b8284611507565b91506115a682611561565b915081905092915050565b7f5b43657274696669636174655d5b54696d654572725d3a41637469766174696f60008201527f6e2074696d6520657870697265642e0000000000000000000000000000000000602082015250565b600061160d602f83610da3565b9150611618826115b1565b604082019050919050565b6000602082019050818103600083015261163c81611600565b9050919050565b600061164f8284611507565b915081905092915050565b60008190508160005260206000209050919050565b6000815461167c816112b1565b611686818661148a565b945060018216600081146116a157600181146116b2576116e5565b60ff198316865281860193506116e5565b6116bb8561165a565b60005b838110156116dd578154818901526001820191506020810190506116be565b838801955050505b50505092915050565b60006116fa828461166f565b915081905092915050565b7f5b43657274696669636174655d5b436f64654572725d3a496e76616c6964206160008201527f637469766174696f6e20636f64652e0000000000000000000000000000000000602082015250565b6000611761602f83610da3565b915061176c82611705565b604082019050919050565b6000602082019050818103600083015261179081611754565b905091905056fea26469706673582212207587e9a8b8ca50e4759891a9b6d8aa634f9e38ad5d2c28bad00ed5ceb2e6e9f164736f6c634300080d0033",
  "immutableReferences": {},
  "source": "// SPDX-License-Identifier: MIT\r\npragma solidity >=0.4.22 <0.9.0;\r\n\r\n/**\r\n * @title Certificate Contract\r\n * @notice This contract manages certificate data, state transitions, and activation processes.\r\n */\r\ncontract Certificate {\r\n    address private owner;\r\n    address public userAddress;\r\n\r\n    // Certificate data encrypted with user's view code\r\n    string private data;\r\n\r\n    // Hash of the certified document\r\n    string public documentHash;\r\n    string public jsonHash;\r\n\r\n    // Certificate name and organization name\r\n    string public certificateName;\r\n    string public orgName;\r\n\r\n    // Activation details\r\n    string private activeCode;\r\n    uint256 public activeTime;\r\n    uint256 public disableTime;\r\n    uint256 public deployTime;\r\n\r\n    // Enum to represent the current state of the certificate.\r\n    enum State { Inactive, Active, Disabled }\r\n    State public state;\r\n\r\n    // Events\r\n    event CertificateActivated(address indexed user, uint256 timestamp);\r\n    event StateUpdated(State newState, uint256 disableTime, uint256 timestamp);\r\n\r\n    /**\r\n     * @notice Modifier to restrict functions to the contract owner.\r\n     */\r\n    modifier onlyOwner() {\r\n        require(msg.sender == owner, \"[Certificate][AddressErr]:Not the contract owner.\");\r\n        _; \r\n    }\r\n\r\n    /**\r\n     * @notice Modifier to allow only the linked user to access specific functions.\r\n     */\r\n    modifier onlyUser() {\r\n        require(msg.sender == userAddress, \"[Certificate][AddressErr]:Not the linked user.\");\r\n        _; \r\n    }\r\n\r\n    /**\r\n     * @notice Modifier to allow only the specific State to access specific functions.\r\n     */\r\n    function stateToString(State _state) internal pure returns (string memory) {\r\n        if (_state == State.Inactive) return \"Inactive\";\r\n        if (_state == State.Active) return \"Active\";\r\n        if (_state == State.Disabled) return \"Disabled\";\r\n        return \"Unknown\";\r\n    }\r\n\r\n    modifier checkState(State stateToCheck) {\r\n        require(state == stateToCheck, string(abi.encodePacked(\"[Certificate][StateErr]:Contract is \", stateToString(state), \".\")));\r\n        _; \r\n    }\r\n\r\n    /**\r\n     * @notice Initializes the Certificate contract with an owner and activation code.\r\n     * @param _activeCode The activation code for the certificate.\r\n     * @param _documentHash The hash of the certified document.\r\n     * @param _jsonHash The hash of the VP(Data).\r\n     * @param _disableTime The time limit for the certificate to be disabled.\r\n     * @param _certificateName The name of the certificate.\r\n     * @param _orgName The name of the organization issuing the certificate.\r\n     */\r\n    constructor(\r\n        string memory _activeCode,\r\n        string memory _documentHash,\r\n        string memory _jsonHash,\r\n        uint256 _disableTime,\r\n        string memory _certificateName,\r\n        string memory _orgName\r\n    ) {\r\n        owner = msg.sender;\r\n        activeCode = _activeCode;\r\n        activeTime = block.timestamp + 1 days; // Default time limit: 1 day\r\n        documentHash = _documentHash;\r\n        jsonHash = _jsonHash;\r\n        state = State.Inactive;\r\n        deployTime = block.timestamp;\r\n        disableTime = deployTime + (_disableTime * 1 days);\r\n        certificateName = _certificateName;\r\n        orgName = _orgName;\r\n    }\r\n\r\n    /**\r\n     * @notice Activates the certificate if within the activation time limit.\r\n     * @param _userAddress The address of the user activating the certificate.\r\n     * @param _activeCode The activation code provided by the user.\r\n     */\r\n    function activateCertificate(address _userAddress, string memory _activeCode, string memory _data) external checkState(State.Inactive){\r\n        require(block.timestamp <= activeTime, \"[Certificate][TimeErr]:Activation time expired.\");\r\n        require(keccak256(abi.encodePacked(activeCode)) == keccak256(abi.encodePacked(_activeCode)), \"[Certificate][CodeErr]:Invalid activation code.\");\r\n        userAddress = _userAddress;\r\n        state = State.Active;\r\n        data = _data;\r\n        emit CertificateActivated(_userAddress, block.timestamp);\r\n    }\r\n\r\n    /**\r\n     * @notice Updates the certificate's state and sets a disable time if needed.\r\n     * @param _newState Indicates the state of the certificate.\r\n     * @param _disableTime The timestamp when the certificate should be disabled .\r\n     */\r\n    function updateState(State _newState, uint256 _disableTime) external onlyOwner {\r\n        disableTime = deployTime + (_disableTime * 1 days);\r\n        state = _newState;\r\n        emit StateUpdated(_newState, disableTime, block.timestamp);\r\n    }\r\n\r\n    /**\r\n     * @notice Retrieves the certificate data along with document hash, VPHash, state, deploy time, disable time, certificate name, organization name, and owner address.\r\n     * @return The encrypted data, document hash, VPHash, state, deploy time, disable time, certificate name, organization name, and owner address.\r\n     */\r\n    function getCertificate() external view returns (\r\n        string memory,\r\n        string memory,\r\n        string memory,\r\n        State,\r\n        uint256,\r\n        uint256,\r\n        string memory,\r\n        string memory,\r\n        address\r\n    ) {\r\n        return (data, documentHash, jsonHash, state, deployTime, disableTime, certificateName, orgName, owner);\r\n    }\r\n\r\n}\r\n",
  "sourcePath": "C:\\Users\\nicky\\Desktop\\net-authorizing-system\\contracts\\Certificate.sol",
  "compiler": {
    "name": "solc",
    "version": "0.8.13+commit.abaa5c0e.Emscripten.clang"
  },
  "schemaVersion": "3.4.16",
  "updatedAt": "2025-02-14T10:12:07.758Z",
  "devdoc": {
    "kind": "dev",
    "methods": {
      "activateCertificate(address,string,string)": {
        "params": {
          "_activeCode": "The activation code provided by the user.",
          "_userAddress": "The address of the user activating the certificate."
        }
      },
      "constructor": {
        "params": {
          "_activeCode": "The activation code for the certificate.",
          "_certificateName": "The name of the certificate.",
          "_disableTime": "The time limit for the certificate to be disabled.",
          "_documentHash": "The hash of the certified document.",
          "_jsonHash": "The hash of the VP(Data).",
          "_orgName": "The name of the organization issuing the certificate."
        }
      },
      "getCertificate()": {
        "returns": {
          "_0": "The encrypted data, document hash, VPHash, state, deploy time, disable time, certificate name, organization name, and owner address."
        }
      },
      "updateState(uint8,uint256)": {
        "params": {
          "_disableTime": "The timestamp when the certificate should be disabled .",
          "_newState": "Indicates the state of the certificate."
        }
      }
    },
    "title": "Certificate Contract",
    "version": 1
  },
  "userdoc": {
    "kind": "user",
    "methods": {
      "activateCertificate(address,string,string)": {
        "notice": "Activates the certificate if within the activation time limit."
      },
      "constructor": {
        "notice": "Initializes the Certificate contract with an owner and activation code."
      },
      "getCertificate()": {
        "notice": "Retrieves the certificate data along with document hash, VPHash, state, deploy time, disable time, certificate name, organization name, and owner address."
      },
      "updateState(uint8,uint256)": {
        "notice": "Updates the certificate's state and sets a disable time if needed."
      }
    },
    "notice": "This contract manages certificate data, state transitions, and activation processes.",
    "version": 1
  }
}