{
  "contractName": "Certificate",
  "abi": [
    {
      "inputs": [
        {
          "internalType": "string",
          "name": "_activeCode",
          "type": "string"
        },
        {
          "internalType": "string",
          "name": "_documentHash",
          "type": "string"
        },
        {
          "internalType": "string",
          "name": "_jsonHash",
          "type": "string"
        },
        {
          "internalType": "uint256",
          "name": "_disableTime",
          "type": "uint256"
        }
      ],
      "stateMutability": "nonpayable",
      "type": "constructor"
    },
    {
      "anonymous": false,
      "inputs": [
        {
          "indexed": true,
          "internalType": "address",
          "name": "user",
          "type": "address"
        },
        {
          "indexed": false,
          "internalType": "uint256",
          "name": "timestamp",
          "type": "uint256"
        }
      ],
      "name": "CertificateActivated",
      "type": "event"
    },
    {
      "anonymous": false,
      "inputs": [
        {
          "indexed": false,
          "internalType": "enum Certificate.State",
          "name": "newState",
          "type": "uint8"
        },
        {
          "indexed": false,
          "internalType": "uint256",
          "name": "disableTime",
          "type": "uint256"
        }
      ],
      "name": "StateUpdated",
      "type": "event"
    },
    {
      "inputs": [],
      "name": "activeTime",
      "outputs": [
        {
          "internalType": "uint256",
          "name": "",
          "type": "uint256"
        }
      ],
      "stateMutability": "view",
      "type": "function"
    },
    {
      "inputs": [],
      "name": "deployTime",
      "outputs": [
        {
          "internalType": "uint256",
          "name": "",
          "type": "uint256"
        }
      ],
      "stateMutability": "view",
      "type": "function"
    },
    {
      "inputs": [],
      "name": "disableTime",
      "outputs": [
        {
          "internalType": "uint256",
          "name": "",
          "type": "uint256"
        }
      ],
      "stateMutability": "view",
      "type": "function"
    },
    {
      "inputs": [],
      "name": "documentHash",
      "outputs": [
        {
          "internalType": "string",
          "name": "",
          "type": "string"
        }
      ],
      "stateMutability": "view",
      "type": "function"
    },
    {
      "inputs": [],
      "name": "jsonHash",
      "outputs": [
        {
          "internalType": "string",
          "name": "",
          "type": "string"
        }
      ],
      "stateMutability": "view",
      "type": "function"
    },
    {
      "inputs": [],
      "name": "state",
      "outputs": [
        {
          "internalType": "enum Certificate.State",
          "name": "",
          "type": "uint8"
        }
      ],
      "stateMutability": "view",
      "type": "function"
    },
    {
      "inputs": [],
      "name": "userAddress",
      "outputs": [
        {
          "internalType": "address",
          "name": "",
          "type": "address"
        }
      ],
      "stateMutability": "view",
      "type": "function"
    },
    {
      "inputs": [
        {
          "internalType": "address",
          "name": "_userAddress",
          "type": "address"
        },
        {
          "internalType": "string",
          "name": "_activeCode",
          "type": "string"
        },
        {
          "internalType": "string",
          "name": "_data",
          "type": "string"
        }
      ],
      "name": "activateCertificate",
      "outputs": [],
      "stateMutability": "nonpayable",
      "type": "function"
    },
    {
      "inputs": [
        {
          "internalType": "enum Certificate.State",
          "name": "_newState",
          "type": "uint8"
        },
        {
          "internalType": "uint256",
          "name": "_disableTime",
          "type": "uint256"
        }
      ],
      "name": "updateState",
      "outputs": [],
      "stateMutability": "nonpayable",
      "type": "function"
    },
    {
      "inputs": [],
      "name": "getCertificate",
      "outputs": [
        {
          "internalType": "string",
          "name": "",
          "type": "string"
        },
        {
          "internalType": "string",
          "name": "",
          "type": "string"
        },
        {
          "internalType": "string",
          "name": "",
          "type": "string"
        },
        {
          "internalType": "enum Certificate.State",
          "name": "",
          "type": "uint8"
        },
        {
          "internalType": "uint256",
          "name": "",
          "type": "uint256"
        }
      ],
      "stateMutability": "view",
      "type": "function"
    }
  ],
  "bytecode": "0x60806040523480156200001157600080fd5b5060405162001a7138038062001a718339818101604052810190620000379190620003c6565b336000806101000a81548173ffffffffffffffffffffffffffffffffffffffff021916908373ffffffffffffffffffffffffffffffffffffffff16021790555083600590805190602001906200008f9291906200013e565b506201518042620000a19190620004c4565b6006819055508260039080519060200190620000bf9291906200013e565b508160049080519060200190620000d89291906200013e565b506000600960006101000a81548160ff0219169083600281111562000102576200010162000521565b5b02179055504260088190555062015180816200011f919062000550565b6008546200012e9190620004c4565b6007819055505050505062000615565b8280546200014c90620005e0565b90600052602060002090601f016020900481019282620001705760008555620001bc565b82601f106200018b57805160ff1916838001178555620001bc565b82800160010185558215620001bc579182015b82811115620001bb5782518255916020019190600101906200019e565b5b509050620001cb9190620001cf565b5090565b5b80821115620001ea576000816000905550600101620001d0565b5090565b6000604051905090565b600080fd5b600080fd5b600080fd5b600080fd5b6000601f19601f8301169050919050565b7f4e487b7100000000000000000000000000000000000000000000000000000000600052604160045260246000fd5b62000257826200020c565b810181811067ffffffffffffffff821117156200027957620002786200021d565b5b80604052505050565b60006200028e620001ee565b90506200029c82826200024c565b919050565b600067ffffffffffffffff821115620002bf57620002be6200021d565b5b620002ca826200020c565b9050602081019050919050565b60005b83811015620002f7578082015181840152602081019050620002da565b8381111562000307576000848401525b50505050565b6000620003246200031e84620002a1565b62000282565b90508281526020810184848401111562000343576200034262000207565b5b62000350848285620002d7565b509392505050565b600082601f83011262000370576200036f62000202565b5b8151620003828482602086016200030d565b91505092915050565b6000819050919050565b620003a0816200038b565b8114620003ac57600080fd5b50565b600081519050620003c08162000395565b92915050565b60008060008060808587031215620003e357620003e2620001f8565b5b600085015167ffffffffffffffff811115620004045762000403620001fd565b5b620004128782880162000358565b945050602085015167ffffffffffffffff811115620004365762000435620001fd565b5b620004448782880162000358565b935050604085015167ffffffffffffffff811115620004685762000467620001fd565b5b620004768782880162000358565b92505060606200048987828801620003af565b91505092959194509250565b7f4e487b7100000000000000000000000000000000000000000000000000000000600052601160045260246000fd5b6000620004d1826200038b565b9150620004de836200038b565b9250827fffffffffffffffffffffffffffffffffffffffffffffffffffffffffffffffff0382111562000516576200051562000495565b5b828201905092915050565b7f4e487b7100000000000000000000000000000000000000000000000000000000600052602160045260246000fd5b60006200055d826200038b565b91506200056a836200038b565b9250817fffffffffffffffffffffffffffffffffffffffffffffffffffffffffffffffff0483118215151615620005a657620005a562000495565b5b828202905092915050565b7f4e487b7100000000000000000000000000000000000000000000000000000000600052602260045260246000fd5b60006002820490506001821680620005f957607f821691505b6020821081036200060f576200060e620005b1565b5b50919050565b61144c80620006256000396000f3fe608060405234801561001057600080fd5b506004361061009d5760003560e01c8063ae15eb8e11610066578063ae15eb8e14610136578063b0dc3c5f14610158578063c19d93fb14610174578063cb8c478a14610192578063e4128fb3146101b05761009d565b806273c769146100a2578063797bec77146100c05780637a40624b146100de5780638af5ff65146100fc578063ac1a983314610118575b600080fd5b6100aa6101ce565b6040516100b79190610a7b565b60405180910390f35b6100c86101d4565b6040516100d59190610b2f565b60405180910390f35b6100e6610262565b6040516100f39190610a7b565b60405180910390f35b61011660048036038101906101119190610bb6565b610268565b005b610120610346565b60405161012d9190610b2f565b60405180910390f35b61013e6103d4565b60405161014f959493929190610c6d565b60405180910390f35b610172600480360381019061016d9190610e68565b6105aa565b005b61017c610806565b6040516101899190610ef3565b60405180910390f35b61019a610819565b6040516101a79190610a7b565b60405180910390f35b6101b861081f565b6040516101c59190610f1d565b60405180910390f35b60075481565b600380546101e190610f67565b80601f016020809104026020016040519081016040528092919081815260200182805461020d90610f67565b801561025a5780601f1061022f5761010080835404028352916020019161025a565b820191906000526020600020905b81548152906001019060200180831161023d57829003601f168201915b505050505081565b60085481565b60008054906101000a900473ffffffffffffffffffffffffffffffffffffffff1673ffffffffffffffffffffffffffffffffffffffff163373ffffffffffffffffffffffffffffffffffffffff16146102f6576040517f08c379a00000000000000000000000000000000000000000000000000000000081526004016102ed9061100a565b60405180910390fd5b62015180816103059190611059565b60085461031291906110b3565b60078190555081600960006101000a81548160ff0219169083600281111561033d5761033c610bf6565b5b02179055505050565b6004805461035390610f67565b80601f016020809104026020016040519081016040528092919081815260200182805461037f90610f67565b80156103cc5780601f106103a1576101008083540402835291602001916103cc565b820191906000526020600020905b8154815290600101906020018083116103af57829003601f168201915b505050505081565b6060806060600080600260036004600960009054906101000a900460ff1660075484805461040190610f67565b80601f016020809104026020016040519081016040528092919081815260200182805461042d90610f67565b801561047a5780601f1061044f5761010080835404028352916020019161047a565b820191906000526020600020905b81548152906001019060200180831161045d57829003601f168201915b5050505050945083805461048d90610f67565b80601f01602080910402602001604051908101604052809291908181526020018280546104b990610f67565b80156105065780601f106104db57610100808354040283529160200191610506565b820191906000526020600020905b8154815290600101906020018083116104e957829003601f168201915b5050505050935082805461051990610f67565b80601f016020809104026020016040519081016040528092919081815260200182805461054590610f67565b80156105925780601f1061056757610100808354040283529160200191610592565b820191906000526020600020905b81548152906001019060200180831161057557829003601f168201915b50505050509250945094509450945094509091929394565b60008060028111156105bf576105be610bf6565b5b600960009054906101000a900460ff1660028111156105e1576105e0610bf6565b5b146105fa600960009054906101000a900460ff16610845565b60405160200161060a9190611203565b6040516020818303038152906040529061065a576040517f08c379a00000000000000000000000000000000000000000000000000000000081526004016106519190610b2f565b60405180910390fd5b506006544211156106a0576040517f08c379a0000000000000000000000000000000000000000000000000000000008152600401610697906112a2565b60405180910390fd5b826040516020016106b191906112c2565b6040516020818303038152906040528051906020012060056040516020016106d9919061136d565b604051602081830303815290604052805190602001201461072f576040517f08c379a0000000000000000000000000000000000000000000000000000000008152600401610726906113f6565b60405180910390fd5b83600160006101000a81548173ffffffffffffffffffffffffffffffffffffffff021916908373ffffffffffffffffffffffffffffffffffffffff1602179055506001600960006101000a81548160ff0219169083600281111561079657610795610bf6565b5b021790555081600290805190602001906107b19291906109bf565b508373ffffffffffffffffffffffffffffffffffffffff167fa38f42bcea37e91a0edf5c8266d4f44854ea57559e2277111a14685ab81ea427426040516107f89190610a7b565b60405180910390a250505050565b600960009054906101000a900460ff1681565b60065481565b600160009054906101000a900473ffffffffffffffffffffffffffffffffffffffff1681565b60606000600281111561085b5761085a610bf6565b5b82600281111561086e5761086d610bf6565b5b036108b0576040518060400160405280600881526020017f496e61637469766500000000000000000000000000000000000000000000000081525090506109ba565b600160028111156108c4576108c3610bf6565b5b8260028111156108d7576108d6610bf6565b5b03610919576040518060400160405280600681526020017f416374697665000000000000000000000000000000000000000000000000000081525090506109ba565b60028081111561092c5761092b610bf6565b5b82600281111561093f5761093e610bf6565b5b03610981576040518060400160405280600881526020017f44697361626c656400000000000000000000000000000000000000000000000081525090506109ba565b6040518060400160405280600781526020017f556e6b6e6f776e0000000000000000000000000000000000000000000000000081525090505b919050565b8280546109cb90610f67565b90600052602060002090601f0160209004810192826109ed5760008555610a34565b82601f10610a0657805160ff1916838001178555610a34565b82800160010185558215610a34579182015b82811115610a33578251825591602001919060010190610a18565b5b509050610a419190610a45565b5090565b5b80821115610a5e576000816000905550600101610a46565b5090565b6000819050919050565b610a7581610a62565b82525050565b6000602082019050610a906000830184610a6c565b92915050565b600081519050919050565b600082825260208201905092915050565b60005b83811015610ad0578082015181840152602081019050610ab5565b83811115610adf576000848401525b50505050565b6000601f19601f8301169050919050565b6000610b0182610a96565b610b0b8185610aa1565b9350610b1b818560208601610ab2565b610b2481610ae5565b840191505092915050565b60006020820190508181036000830152610b498184610af6565b905092915050565b6000604051905090565b600080fd5b600080fd5b60038110610b7257600080fd5b50565b600081359050610b8481610b65565b92915050565b610b9381610a62565b8114610b9e57600080fd5b50565b600081359050610bb081610b8a565b92915050565b60008060408385031215610bcd57610bcc610b5b565b5b6000610bdb85828601610b75565b9250506020610bec85828601610ba1565b9150509250929050565b7f4e487b7100000000000000000000000000000000000000000000000000000000600052602160045260246000fd5b60038110610c3657610c35610bf6565b5b50565b6000819050610c4782610c25565b919050565b6000610c5782610c39565b9050919050565b610c6781610c4c565b82525050565b600060a0820190508181036000830152610c878188610af6565b90508181036020830152610c9b8187610af6565b90508181036040830152610caf8186610af6565b9050610cbe6060830185610c5e565b610ccb6080830184610a6c565b9695505050505050565b600073ffffffffffffffffffffffffffffffffffffffff82169050919050565b6000610d0082610cd5565b9050919050565b610d1081610cf5565b8114610d1b57600080fd5b50565b600081359050610d2d81610d07565b92915050565b600080fd5b600080fd5b7f4e487b7100000000000000000000000000000000000000000000000000000000600052604160045260246000fd5b610d7582610ae5565b810181811067ffffffffffffffff82111715610d9457610d93610d3d565b5b80604052505050565b6000610da7610b51565b9050610db38282610d6c565b919050565b600067ffffffffffffffff821115610dd357610dd2610d3d565b5b610ddc82610ae5565b9050602081019050919050565b82818337600083830152505050565b6000610e0b610e0684610db8565b610d9d565b905082815260208101848484011115610e2757610e26610d38565b5b610e32848285610de9565b509392505050565b600082601f830112610e4f57610e4e610d33565b5b8135610e5f848260208601610df8565b91505092915050565b600080600060608486031215610e8157610e80610b5b565b5b6000610e8f86828701610d1e565b935050602084013567ffffffffffffffff811115610eb057610eaf610b60565b5b610ebc86828701610e3a565b925050604084013567ffffffffffffffff811115610edd57610edc610b60565b5b610ee986828701610e3a565b9150509250925092565b6000602082019050610f086000830184610c5e565b92915050565b610f1781610cf5565b82525050565b6000602082019050610f326000830184610f0e565b92915050565b7f4e487b7100000000000000000000000000000000000000000000000000000000600052602260045260246000fd5b60006002820490506001821680610f7f57607f821691505b602082108103610f9257610f91610f38565b5b50919050565b7f5b43657274696669636174655d5b416464726573734572725d3a4e6f7420746860008201527f6520636f6e7472616374206f776e65722e000000000000000000000000000000602082015250565b6000610ff4603183610aa1565b9150610fff82610f98565b604082019050919050565b6000602082019050818103600083015261102381610fe7565b9050919050565b7f4e487b7100000000000000000000000000000000000000000000000000000000600052601160045260246000fd5b600061106482610a62565b915061106f83610a62565b9250817fffffffffffffffffffffffffffffffffffffffffffffffffffffffffffffffff04831182151516156110a8576110a761102a565b5b828202905092915050565b60006110be82610a62565b91506110c983610a62565b9250827fffffffffffffffffffffffffffffffffffffffffffffffffffffffffffffffff038211156110fe576110fd61102a565b5b828201905092915050565b600081905092915050565b7f5b43657274696669636174655d5b53746174654572725d3a436f6e747261637460008201527f2069732000000000000000000000000000000000000000000000000000000000602082015250565b6000611170602483611109565b915061117b82611114565b602482019050919050565b600061119182610a96565b61119b8185611109565b93506111ab818560208601610ab2565b80840191505092915050565b7f2e00000000000000000000000000000000000000000000000000000000000000600082015250565b60006111ed600183611109565b91506111f8826111b7565b600182019050919050565b600061120e82611163565b915061121a8284611186565b9150611225826111e0565b915081905092915050565b7f5b43657274696669636174655d5b54696d654572725d3a41637469766174696f60008201527f6e2074696d6520657870697265642e0000000000000000000000000000000000602082015250565b600061128c602f83610aa1565b915061129782611230565b604082019050919050565b600060208201905081810360008301526112bb8161127f565b9050919050565b60006112ce8284611186565b915081905092915050565b60008190508160005260206000209050919050565b600081546112fb81610f67565b6113058186611109565b94506001821660008114611320576001811461133157611364565b60ff19831686528186019350611364565b61133a856112d9565b60005b8381101561135c5781548189015260018201915060208101905061133d565b838801955050505b50505092915050565b600061137982846112ee565b915081905092915050565b7f5b43657274696669636174655d5b436f64654572725d3a496e76616c6964206160008201527f637469766174696f6e20636f64652e0000000000000000000000000000000000602082015250565b60006113e0602f83610aa1565b91506113eb82611384565b604082019050919050565b6000602082019050818103600083015261140f816113d3565b905091905056fea264697066735822122022186dd4d073b351d8b2904e8d628c7a9e6461750851392ef7762527386aee1964736f6c634300080d0033",
  "immutableReferences": {},
  "source": "// SPDX-License-Identifier: MIT\r\npragma solidity >=0.4.22 <0.9.0;\r\n\r\n/**\r\n * @title Certificate Contract\r\n * @notice This contract manages certificate data, state transitions, and activation processes.\r\n */\r\ncontract Certificate {\r\n    address private owner;\r\n    address public userAddress;\r\n\r\n    // Certificate data encrypted with user's view code\r\n    string private data;\r\n\r\n    // Hash of the certified document\r\n    string public documentHash;\r\n    string public jsonHash;\r\n\r\n    // Activation details\r\n    string private activeCode;\r\n    uint256 public activeTime;\r\n    uint256 public disableTime;\r\n    uint256 public deployTime;\r\n\r\n    // Enum to represent the current state of the certificate.\r\n    enum State { Inactive, Active, Disabled }\r\n    State public state;\r\n\r\n    // Events\r\n    event CertificateActivated(address indexed user, uint256 timestamp);\r\n    event StateUpdated(State newState, uint256 disableTime);\r\n\r\n    /**\r\n     * @notice Modifier to restrict functions to the contract owner.\r\n     */\r\n    modifier onlyOwner() {\r\n        require(msg.sender == owner, \"[Certificate][AddressErr]:Not the contract owner.\");\r\n        _;\r\n    }\r\n\r\n    /**\r\n     * @notice Modifier to allow only the linked user to access specific functions.\r\n     */\r\n    modifier onlyUser() {\r\n        require(msg.sender == userAddress, \"[Certificate][AddressErr]:Not the linked user.\");\r\n        _;\r\n    }\r\n\r\n    /**\r\n     * @notice Modifier to allow only the specific State to access specific functions.\r\n     */\r\n    function stateToString(State _state) internal pure returns (string memory) {\r\n        if (_state == State.Inactive) return \"Inactive\";\r\n        if (_state == State.Active) return \"Active\";\r\n        if (_state == State.Disabled) return \"Disabled\";\r\n        return \"Unknown\";\r\n    }\r\n\r\n    modifier checkState(State stateToCheck) {\r\n        require(state == stateToCheck, string(abi.encodePacked(\"[Certificate][StateErr]:Contract is \", stateToString(state), \".\")));\r\n        _;\r\n    }\r\n\r\n\r\n\r\n    /**\r\n     * @notice Initializes the Certificate contract with an owner and activation code.\r\n     * @param _activeCode The activation code for the certificate.\r\n     * @param _documentHash The hash of the certified document.\r\n     * @param _jsonHash The hash of the VP(Data).\r\n     * @param _disableTime The time limit for the certificate to be disabled.\r\n     */\r\n    constructor(string memory _activeCode, string memory _documentHash, string memory  _jsonHash, uint256 _disableTime) {\r\n        owner = msg.sender;\r\n        activeCode = _activeCode;\r\n        activeTime = block.timestamp + 1 days; // Default time limit: 1 day\r\n        documentHash = _documentHash;\r\n        jsonHash = _jsonHash;\r\n        state = State.Inactive;\r\n        deployTime = block.timestamp;\r\n        disableTime = deployTime + (_disableTime * 1 days);\r\n    }\r\n\r\n    /**\r\n     * @notice Activates the certificate if within the activation time limit.\r\n     * @param _userAddress The address of the user activating the certificate.\r\n     * @param _activeCode The activation code provided by the user.\r\n     */\r\n    function activateCertificate(address _userAddress, string memory _activeCode, string memory _data) external checkState(State.Inactive){\r\n        require(block.timestamp <= activeTime, \"[Certificate][TimeErr]:Activation time expired.\");\r\n        require(keccak256(abi.encodePacked(activeCode)) == keccak256(abi.encodePacked(_activeCode)), \"[Certificate][CodeErr]:Invalid activation code.\");\r\n        userAddress = _userAddress;\r\n        state = State.Active;\r\n        data = _data;\r\n        emit CertificateActivated(_userAddress, block.timestamp);\r\n    }\r\n\r\n    /**\r\n     * @notice Updates the certificate's state and sets a disable time if needed.\r\n     * @param _newState Indicates the state of the certificate.\r\n     * @param _disableTime The timestamp when the certificate should be disabled .\r\n     */\r\n    function updateState(State _newState, uint256 _disableTime) external onlyOwner {\r\n        disableTime = deployTime + (_disableTime * 1 days);\r\n        state = _newState;\r\n    }\r\n\r\n    /**\r\n     * @notice Retrieves the certificate data and document hash.\r\n     * @return The encrypted data, document hash, VPHash, state.\r\n     */\r\n    function getCertificate() external view returns (string memory, string memory, string memory, State, uint256) {\r\n        return (data, documentHash, jsonHash, state, disableTime);\r\n    }\r\n\r\n\r\n}\r\n",
  "sourcePath": "C:\\Users\\nicky\\Desktop\\net-authorizing-system\\contracts\\Certificate.sol",
  "compiler": {
    "name": "solc",
    "version": "0.8.13+commit.abaa5c0e.Emscripten.clang"
  },
  "schemaVersion": "3.4.16",
  "updatedAt": "2025-02-08T06:39:10.595Z",
  "devdoc": {
    "kind": "dev",
    "methods": {
      "activateCertificate(address,string,string)": {
        "params": {
          "_activeCode": "The activation code provided by the user.",
          "_userAddress": "The address of the user activating the certificate."
        }
      },
      "constructor": {
        "params": {
          "_activeCode": "The activation code for the certificate.",
          "_disableTime": "The time limit for the certificate to be disabled.",
          "_documentHash": "The hash of the certified document.",
          "_jsonHash": "The hash of the VP(Data)."
        }
      },
      "getCertificate()": {
        "returns": {
          "_0": "The encrypted data, document hash, VPHash, state."
        }
      },
      "updateState(uint8,uint256)": {
        "params": {
          "_disableTime": "The timestamp when the certificate should be disabled .",
          "_newState": "Indicates the state of the certificate."
        }
      }
    },
    "title": "Certificate Contract",
    "version": 1
  },
  "userdoc": {
    "kind": "user",
    "methods": {
      "activateCertificate(address,string,string)": {
        "notice": "Activates the certificate if within the activation time limit."
      },
      "constructor": {
        "notice": "Initializes the Certificate contract with an owner and activation code."
      },
      "getCertificate()": {
        "notice": "Retrieves the certificate data and document hash."
      },
      "updateState(uint8,uint256)": {
        "notice": "Updates the certificate's state and sets a disable time if needed."
      }
    },
    "notice": "This contract manages certificate data, state transitions, and activation processes.",
    "version": 1
  }
}