{
  "contractName": "Certificate",
  "abi": [
    {
      "inputs": [
        {
          "internalType": "address",
          "name": "_initialOwner",
          "type": "address"
        },
        {
          "internalType": "string",
          "name": "_activeCode",
          "type": "string"
        },
        {
          "internalType": "address",
          "name": "_certificateAddress",
          "type": "address"
        },
        {
          "internalType": "bytes32",
          "name": "_hash",
          "type": "bytes32"
        }
      ],
      "stateMutability": "nonpayable",
      "type": "constructor"
    },
    {
      "inputs": [
        {
          "internalType": "address",
          "name": "owner",
          "type": "address"
        }
      ],
      "name": "OwnableInvalidOwner",
      "type": "error"
    },
    {
      "inputs": [
        {
          "internalType": "address",
          "name": "account",
          "type": "address"
        }
      ],
      "name": "OwnableUnauthorizedAccount",
      "type": "error"
    },
    {
      "anonymous": false,
      "inputs": [
        {
          "indexed": true,
          "internalType": "address",
          "name": "user",
          "type": "address"
        },
        {
          "indexed": false,
          "internalType": "uint256",
          "name": "timestamp",
          "type": "uint256"
        }
      ],
      "name": "CertificateActivated",
      "type": "event"
    },
    {
      "anonymous": false,
      "inputs": [
        {
          "indexed": false,
          "internalType": "string",
          "name": "newData",
          "type": "string"
        }
      ],
      "name": "DataUpdated",
      "type": "event"
    },
    {
      "anonymous": false,
      "inputs": [
        {
          "indexed": true,
          "internalType": "address",
          "name": "previousOwner",
          "type": "address"
        },
        {
          "indexed": true,
          "internalType": "address",
          "name": "newOwner",
          "type": "address"
        }
      ],
      "name": "OwnershipTransferred",
      "type": "event"
    },
    {
      "anonymous": false,
      "inputs": [
        {
          "indexed": false,
          "internalType": "enum Certificate.State",
          "name": "newState",
          "type": "uint8"
        },
        {
          "indexed": false,
          "internalType": "uint256",
          "name": "disableTime",
          "type": "uint256"
        }
      ],
      "name": "StateUpdated",
      "type": "event"
    },
    {
      "inputs": [],
      "name": "activeTimeLimit",
      "outputs": [
        {
          "internalType": "uint256",
          "name": "",
          "type": "uint256"
        }
      ],
      "stateMutability": "view",
      "type": "function"
    },
    {
      "inputs": [],
      "name": "certificateAddress",
      "outputs": [
        {
          "internalType": "address",
          "name": "",
          "type": "address"
        }
      ],
      "stateMutability": "view",
      "type": "function"
    },
    {
      "inputs": [],
      "name": "disableTime",
      "outputs": [
        {
          "internalType": "uint256",
          "name": "",
          "type": "uint256"
        }
      ],
      "stateMutability": "view",
      "type": "function"
    },
    {
      "inputs": [],
      "name": "hash",
      "outputs": [
        {
          "internalType": "bytes32",
          "name": "",
          "type": "bytes32"
        }
      ],
      "stateMutability": "view",
      "type": "function"
    },
    {
      "inputs": [],
      "name": "owner",
      "outputs": [
        {
          "internalType": "address",
          "name": "",
          "type": "address"
        }
      ],
      "stateMutability": "view",
      "type": "function"
    },
    {
      "inputs": [],
      "name": "renounceOwnership",
      "outputs": [],
      "stateMutability": "nonpayable",
      "type": "function"
    },
    {
      "inputs": [],
      "name": "state",
      "outputs": [
        {
          "internalType": "enum Certificate.State",
          "name": "",
          "type": "uint8"
        }
      ],
      "stateMutability": "view",
      "type": "function"
    },
    {
      "inputs": [
        {
          "internalType": "address",
          "name": "newOwner",
          "type": "address"
        }
      ],
      "name": "transferOwnership",
      "outputs": [],
      "stateMutability": "nonpayable",
      "type": "function"
    },
    {
      "inputs": [],
      "name": "userAddress",
      "outputs": [
        {
          "internalType": "address",
          "name": "",
          "type": "address"
        }
      ],
      "stateMutability": "view",
      "type": "function"
    },
    {
      "inputs": [
        {
          "internalType": "address",
          "name": "_userAddress",
          "type": "address"
        },
        {
          "internalType": "string",
          "name": "_activeCode",
          "type": "string"
        }
      ],
      "name": "activateCertificate",
      "outputs": [],
      "stateMutability": "nonpayable",
      "type": "function"
    },
    {
      "inputs": [
        {
          "internalType": "enum Certificate.State",
          "name": "_newState",
          "type": "uint8"
        },
        {
          "internalType": "uint256",
          "name": "_disableTime",
          "type": "uint256"
        }
      ],
      "name": "updateState",
      "outputs": [],
      "stateMutability": "nonpayable",
      "type": "function"
    },
    {
      "inputs": [],
      "name": "getCertificate",
      "outputs": [
        {
          "internalType": "string",
          "name": "",
          "type": "string"
        },
        {
          "internalType": "bytes32",
          "name": "",
          "type": "bytes32"
        }
      ],
      "stateMutability": "view",
      "type": "function"
    },
    {
      "inputs": [
        {
          "internalType": "string",
          "name": "_newData",
          "type": "string"
        }
      ],
      "name": "updateData",
      "outputs": [],
      "stateMutability": "nonpayable",
      "type": "function"
    }
  ],
  "bytecode": "0x60806040526201518060055534801562000017575f80fd5b5060405162001c9a38038062001c9a83398181016040528101906200003d919062000432565b835f73ffffffffffffffffffffffffffffffffffffffff168173ffffffffffffffffffffffffffffffffffffffff1603620000b1575f6040517f1e4fbdf7000000000000000000000000000000000000000000000000000000008152600401620000a89190620004d1565b60405180910390fd5b620000c2816200015360201b60201c565b508260049081620000d4919062000723565b508160065f6101000a81548173ffffffffffffffffffffffffffffffffffffffff021916908373ffffffffffffffffffffffffffffffffffffffff160217905550806003819055505f600660146101000a81548160ff0219169083600281111562000144576200014362000807565b5b02179055505050505062000834565b5f805f9054906101000a900473ffffffffffffffffffffffffffffffffffffffff169050815f806101000a81548173ffffffffffffffffffffffffffffffffffffffff021916908373ffffffffffffffffffffffffffffffffffffffff1602179055508173ffffffffffffffffffffffffffffffffffffffff168173ffffffffffffffffffffffffffffffffffffffff167f8be0079c531659141344cd1fd0a4f28419497f9722a3daafe3b4186f6b6457e060405160405180910390a35050565b5f604051905090565b5f80fd5b5f80fd5b5f73ffffffffffffffffffffffffffffffffffffffff82169050919050565b5f620002508262000225565b9050919050565b620002628162000244565b81146200026d575f80fd5b50565b5f81519050620002808162000257565b92915050565b5f80fd5b5f80fd5b5f601f19601f8301169050919050565b7f4e487b71000000000000000000000000000000000000000000000000000000005f52604160045260245ffd5b620002d6826200028e565b810181811067ffffffffffffffff82111715620002f857620002f76200029e565b5b80604052505050565b5f6200030c62000214565b90506200031a8282620002cb565b919050565b5f67ffffffffffffffff8211156200033c576200033b6200029e565b5b62000347826200028e565b9050602081019050919050565b5f5b838110156200037357808201518184015260208101905062000356565b5f8484015250505050565b5f620003946200038e846200031f565b62000301565b905082815260208101848484011115620003b357620003b26200028a565b5b620003c084828562000354565b509392505050565b5f82601f830112620003df57620003de62000286565b5b8151620003f18482602086016200037e565b91505092915050565b5f819050919050565b6200040e81620003fa565b811462000419575f80fd5b50565b5f815190506200042c8162000403565b92915050565b5f805f80608085870312156200044d576200044c6200021d565b5b5f6200045c8782880162000270565b945050602085015167ffffffffffffffff81111562000480576200047f62000221565b5b6200048e87828801620003c8565b9350506040620004a18782880162000270565b9250506060620004b4878288016200041c565b91505092959194509250565b620004cb8162000244565b82525050565b5f602082019050620004e65f830184620004c0565b92915050565b5f81519050919050565b7f4e487b71000000000000000000000000000000000000000000000000000000005f52602260045260245ffd5b5f60028204905060018216806200053b57607f821691505b602082108103620005515762000550620004f6565b5b50919050565b5f819050815f5260205f209050919050565b5f6020601f8301049050919050565b5f82821b905092915050565b5f60088302620005b57fffffffffffffffffffffffffffffffffffffffffffffffffffffffffffffffff8262000578565b620005c1868362000578565b95508019841693508086168417925050509392505050565b5f819050919050565b5f819050919050565b5f6200060b62000605620005ff84620005d9565b620005e2565b620005d9565b9050919050565b5f819050919050565b6200062683620005eb565b6200063e620006358262000612565b84845462000584565b825550505050565b5f90565b6200065462000646565b620006618184846200061b565b505050565b5b8181101562000688576200067c5f826200064a565b60018101905062000667565b5050565b601f821115620006d757620006a18162000557565b620006ac8462000569565b81016020851015620006bc578190505b620006d4620006cb8562000569565b83018262000666565b50505b505050565b5f82821c905092915050565b5f620006f95f1984600802620006dc565b1980831691505092915050565b5f620007138383620006e8565b9150826002028217905092915050565b6200072e82620004ec565b67ffffffffffffffff8111156200074a57620007496200029e565b5b62000756825462000523565b620007638282856200068c565b5f60209050601f83116001811462000799575f841562000784578287015190505b62000790858262000706565b865550620007ff565b601f198416620007a98662000557565b5f5b82811015620007d257848901518255600182019150602085019450602081019050620007ab565b86831015620007f25784890151620007ee601f891682620006e8565b8355505b6001600288020188555050505b505050505050565b7f4e487b71000000000000000000000000000000000000000000000000000000005f52602160045260245ffd5b61145880620008425f395ff3fe608060405234801561000f575f80fd5b50600436106100cc575f3560e01c80638af5ff651161008a578063b49d0ceb11610064578063b49d0ceb146101c7578063c19d93fb146101e3578063e4128fb314610201578063f2fde38b1461021f576100cc565b80638af5ff651461016e5780638da5cb5b1461018a578063ae15eb8e146101a8576100cc565b806273c769146100d057806309bd5a60146100ee57806322d4c99a1461010c5780632707193b1461012a57806368446ead14610148578063715018a614610164575b5f80fd5b6100d861023b565b6040516100e59190610934565b60405180910390f35b6100f6610241565b6040516101039190610965565b60405180910390f35b610114610247565b6040516101219190610934565b60405180910390f35b61013261024d565b60405161013f91906109bd565b60405180910390f35b610162600480360381019061015d9190610b23565b610272565b005b61016c61034b565b005b61018860048036038101906101839190610bb7565b61035e565b005b6101926103d4565b60405161019f91906109bd565b60405180910390f35b6101b06103fb565b6040516101be929190610c6f565b60405180910390f35b6101e160048036038101906101dc9190610cc7565b61050b565b005b6101eb610711565b6040516101f89190610d94565b60405180910390f35b610209610724565b60405161021691906109bd565b60405180910390f35b61023960048036038101906102349190610dad565b610749565b005b60075481565b60035481565b60055481565b60065f9054906101000a900473ffffffffffffffffffffffffffffffffffffffff1681565b60015f9054906101000a900473ffffffffffffffffffffffffffffffffffffffff1673ffffffffffffffffffffffffffffffffffffffff163373ffffffffffffffffffffffffffffffffffffffff1614610301576040517f08c379a00000000000000000000000000000000000000000000000000000000081526004016102f890610e48565b60405180910390fd5b80600290816103109190611060565b507f70a1cfe867989ce2ae7d36e8dfa2d3f6ad43678fe220e15a59c1d503092f941381604051610340919061112f565b60405180910390a150565b6103536107cd565b61035c5f610854565b565b6103666107cd565b81600660146101000a81548160ff0219169083600281111561038b5761038a610d21565b5b0217905550806007819055507f4ae0efd4415d49ac9d55b3191932658f0408dae5d50a208546c46993b11766aa82826040516103c892919061114f565b60405180910390a15050565b5f805f9054906101000a900473ffffffffffffffffffffffffffffffffffffffff16905090565b60605f6001600281111561041257610411610d21565b5b600660149054906101000a900460ff16600281111561043457610433610d21565b5b14610474576040517f08c379a000000000000000000000000000000000000000000000000000000000815260040161046b906111c0565b60405180910390fd5b600260035481805461048590610e93565b80601f01602080910402602001604051908101604052809291908181526020018280546104b190610e93565b80156104fc5780601f106104d3576101008083540402835291602001916104fc565b820191905f5260205f20905b8154815290600101906020018083116104df57829003601f168201915b50505050509150915091509091565b5f600281111561051e5761051d610d21565b5b600660149054906101000a900460ff1660028111156105405761053f610d21565b5b14610580576040517f08c379a00000000000000000000000000000000000000000000000000000000081526004016105779061124e565b60405180910390fd5b6005544211156105c5576040517f08c379a00000000000000000000000000000000000000000000000000000000081526004016105bc906112b6565b60405180910390fd5b806040516020016105d6919061130e565b6040516020818303038152906040528051906020012060046040516020016105fe91906113a4565b6040516020818303038152906040528051906020012014610654576040517f08c379a000000000000000000000000000000000000000000000000000000000815260040161064b90611404565b60405180910390fd5b8160015f6101000a81548173ffffffffffffffffffffffffffffffffffffffff021916908373ffffffffffffffffffffffffffffffffffffffff1602179055506001600660146101000a81548160ff021916908360028111156106ba576106b9610d21565b5b02179055508173ffffffffffffffffffffffffffffffffffffffff167fa38f42bcea37e91a0edf5c8266d4f44854ea57559e2277111a14685ab81ea427426040516107059190610934565b60405180910390a25050565b600660149054906101000a900460ff1681565b60015f9054906101000a900473ffffffffffffffffffffffffffffffffffffffff1681565b6107516107cd565b5f73ffffffffffffffffffffffffffffffffffffffff168173ffffffffffffffffffffffffffffffffffffffff16036107c1575f6040517f1e4fbdf70000000000000000000000000000000000000000000000000000000081526004016107b891906109bd565b60405180910390fd5b6107ca81610854565b50565b6107d5610915565b73ffffffffffffffffffffffffffffffffffffffff166107f36103d4565b73ffffffffffffffffffffffffffffffffffffffff161461085257610816610915565b6040517f118cdaa700000000000000000000000000000000000000000000000000000000815260040161084991906109bd565b60405180910390fd5b565b5f805f9054906101000a900473ffffffffffffffffffffffffffffffffffffffff169050815f806101000a81548173ffffffffffffffffffffffffffffffffffffffff021916908373ffffffffffffffffffffffffffffffffffffffff1602179055508173ffffffffffffffffffffffffffffffffffffffff168173ffffffffffffffffffffffffffffffffffffffff167f8be0079c531659141344cd1fd0a4f28419497f9722a3daafe3b4186f6b6457e060405160405180910390a35050565b5f33905090565b5f819050919050565b61092e8161091c565b82525050565b5f6020820190506109475f830184610925565b92915050565b5f819050919050565b61095f8161094d565b82525050565b5f6020820190506109785f830184610956565b92915050565b5f73ffffffffffffffffffffffffffffffffffffffff82169050919050565b5f6109a78261097e565b9050919050565b6109b78161099d565b82525050565b5f6020820190506109d05f8301846109ae565b92915050565b5f604051905090565b5f80fd5b5f80fd5b5f80fd5b5f80fd5b5f601f19601f8301169050919050565b7f4e487b71000000000000000000000000000000000000000000000000000000005f52604160045260245ffd5b610a35826109ef565b810181811067ffffffffffffffff82111715610a5457610a536109ff565b5b80604052505050565b5f610a666109d6565b9050610a728282610a2c565b919050565b5f67ffffffffffffffff821115610a9157610a906109ff565b5b610a9a826109ef565b9050602081019050919050565b828183375f83830152505050565b5f610ac7610ac284610a77565b610a5d565b905082815260208101848484011115610ae357610ae26109eb565b5b610aee848285610aa7565b509392505050565b5f82601f830112610b0a57610b096109e7565b5b8135610b1a848260208601610ab5565b91505092915050565b5f60208284031215610b3857610b376109df565b5b5f82013567ffffffffffffffff811115610b5557610b546109e3565b5b610b6184828501610af6565b91505092915050565b60038110610b76575f80fd5b50565b5f81359050610b8781610b6a565b92915050565b610b968161091c565b8114610ba0575f80fd5b50565b5f81359050610bb181610b8d565b92915050565b5f8060408385031215610bcd57610bcc6109df565b5b5f610bda85828601610b79565b9250506020610beb85828601610ba3565b9150509250929050565b5f81519050919050565b5f82825260208201905092915050565b5f5b83811015610c2c578082015181840152602081019050610c11565b5f8484015250505050565b5f610c4182610bf5565b610c4b8185610bff565b9350610c5b818560208601610c0f565b610c64816109ef565b840191505092915050565b5f6040820190508181035f830152610c878185610c37565b9050610c966020830184610956565b9392505050565b610ca68161099d565b8114610cb0575f80fd5b50565b5f81359050610cc181610c9d565b92915050565b5f8060408385031215610cdd57610cdc6109df565b5b5f610cea85828601610cb3565b925050602083013567ffffffffffffffff811115610d0b57610d0a6109e3565b5b610d1785828601610af6565b9150509250929050565b7f4e487b71000000000000000000000000000000000000000000000000000000005f52602160045260245ffd5b60038110610d5f57610d5e610d21565b5b50565b5f819050610d6f82610d4e565b919050565b5f610d7e82610d62565b9050919050565b610d8e81610d74565b82525050565b5f602082019050610da75f830184610d85565b92915050565b5f60208284031215610dc257610dc16109df565b5b5f610dcf84828501610cb3565b91505092915050565b7f556e617574686f72697a65643a204f6e6c792074686520757365722063616e205f8201527f75706461746520646174612e0000000000000000000000000000000000000000602082015250565b5f610e32602c83610bff565b9150610e3d82610dd8565b604082019050919050565b5f6020820190508181035f830152610e5f81610e26565b9050919050565b7f4e487b71000000000000000000000000000000000000000000000000000000005f52602260045260245ffd5b5f6002820490506001821680610eaa57607f821691505b602082108103610ebd57610ebc610e66565b5b50919050565b5f819050815f5260205f209050919050565b5f6020601f8301049050919050565b5f82821b905092915050565b5f60088302610f1f7fffffffffffffffffffffffffffffffffffffffffffffffffffffffffffffffff82610ee4565b610f298683610ee4565b95508019841693508086168417925050509392505050565b5f819050919050565b5f610f64610f5f610f5a8461091c565b610f41565b61091c565b9050919050565b5f819050919050565b610f7d83610f4a565b610f91610f8982610f6b565b848454610ef0565b825550505050565b5f90565b610fa5610f99565b610fb0818484610f74565b505050565b5b81811015610fd357610fc85f82610f9d565b600181019050610fb6565b5050565b601f82111561101857610fe981610ec3565b610ff284610ed5565b81016020851015611001578190505b61101561100d85610ed5565b830182610fb5565b50505b505050565b5f82821c905092915050565b5f6110385f198460080261101d565b1980831691505092915050565b5f6110508383611029565b9150826002028217905092915050565b61106982610bf5565b67ffffffffffffffff811115611082576110816109ff565b5b61108c8254610e93565b611097828285610fd7565b5f60209050601f8311600181146110c8575f84156110b6578287015190505b6110c08582611045565b865550611127565b601f1984166110d686610ec3565b5f5b828110156110fd578489015182556001820191506020850194506020810190506110d8565b8683101561111a5784890151611116601f891682611029565b8355505b6001600288020188555050505b505050505050565b5f6020820190508181035f8301526111478184610c37565b905092915050565b5f6040820190506111625f830185610d85565b61116f6020830184610925565b9392505050565b7f4365727469666963617465206973206e6f74206163746976652e0000000000005f82015250565b5f6111aa601a83610bff565b91506111b582611176565b602082019050919050565b5f6020820190508181035f8301526111d78161119e565b9050919050565b7f436572746966696361746520616c726561647920616374697665206f722064695f8201527f7361626c65642e00000000000000000000000000000000000000000000000000602082015250565b5f611238602783610bff565b9150611243826111de565b604082019050919050565b5f6020820190508181035f8301526112658161122c565b9050919050565b7f41637469766174696f6e2074696d6520657870697265642e00000000000000005f82015250565b5f6112a0601883610bff565b91506112ab8261126c565b602082019050919050565b5f6020820190508181035f8301526112cd81611294565b9050919050565b5f81905092915050565b5f6112e882610bf5565b6112f281856112d4565b9350611302818560208601610c0f565b80840191505092915050565b5f61131982846112de565b915081905092915050565b5f815461133081610e93565b61133a81866112d4565b9450600182165f811461135457600181146113695761139b565b60ff198316865281151582028601935061139b565b61137285610ec3565b5f5b8381101561139357815481890152600182019150602081019050611374565b838801955050505b50505092915050565b5f6113af8284611324565b915081905092915050565b7f496e76616c69642061637469766174696f6e20636f64652e00000000000000005f82015250565b5f6113ee601883610bff565b91506113f9826113ba565b602082019050919050565b5f6020820190508181035f83015261141b816113e2565b905091905056fea2646970667358221220b6c39340ace3e7bd1210fe5bd671cea6e4542e7d5827f52edbdd8c4619c0d52964736f6c63430008150033",
  "immutableReferences": {},
  "source": "// SPDX-License-Identifier: MIT\r\npragma solidity ^0.8.0;\r\n\r\nimport \"@openzeppelin/contracts/access/Ownable.sol\";\r\n\r\n/**\r\n * @title Certificate Contract\r\n * @notice Manages digital certificates with secure activation, state control, and encrypted data handling.\r\n */\r\ncontract Certificate is Ownable {\r\n    address public userAddress;             // Address linked to this certificate.\r\n    string private data;                    // Encrypted certificate data.\r\n    bytes32 public hash;                    // Hash of the certified document for integrity.\r\n    string private activeCode;             // Activation code for certificate activation.\r\n    uint256 public activeTimeLimit = 1 days; // Time limit for activation (default 1 day).\r\n    address public certificateAddress;     // Associated certificate contract address.\r\n\r\n    enum State { Inactive, Active, Disabled }\r\n    State public state;\r\n\r\n    uint256 public disableTime;            // Timestamp when the certificate will auto-disable.\r\n\r\n    // Events\r\n    event CertificateActivated(address indexed user, uint256 timestamp);\r\n    event StateUpdated(State newState, uint256 disableTime);\r\n    event DataUpdated(string newData);\r\n\r\n    /**\r\n     * @notice Constructor to initialize the certificate.\r\n     * @param _initialOwner The contract owner.\r\n     * @param _activeCode The activation code for this certificate.\r\n     * @param _certificateAddress The address of the related certificate contract.\r\n     * @param _hash The hash of the certified document.\r\n     */\r\n    constructor(\r\n        address _initialOwner,\r\n        string memory _activeCode,\r\n        address _certificateAddress,\r\n        bytes32 _hash\r\n    ) Ownable(_initialOwner) {\r\n        activeCode = _activeCode;\r\n        certificateAddress = _certificateAddress;\r\n        hash = _hash;\r\n        state = State.Inactive;\r\n    }\r\n\r\n    /**\r\n     * @notice Activates the certificate if within time limit and valid activation code is provided.\r\n     * @param _userAddress The address of the user activating the certificate.\r\n     * @param _activeCode The activation code provided by the user.\r\n     */\r\n    function activateCertificate(address _userAddress, string memory _activeCode) external {\r\n        require(state == State.Inactive, \"Certificate already active or disabled.\");\r\n        require(block.timestamp <= activeTimeLimit, \"Activation time expired.\");\r\n        require(keccak256(abi.encodePacked(activeCode)) == keccak256(abi.encodePacked(_activeCode)), \"Invalid activation code.\");\r\n\r\n        userAddress = _userAddress;\r\n        state = State.Active;\r\n        emit CertificateActivated(_userAddress, block.timestamp);\r\n    }\r\n\r\n    /**\r\n     * @notice Updates the certificate's state.\r\n     * @param _newState The new state to be set (Inactive, Active, Disabled).\r\n     * @param _disableTime The timestamp when the certificate should auto-disable.\r\n     */\r\n    function updateState(State _newState, uint256 _disableTime) external onlyOwner {\r\n        state = _newState;\r\n        disableTime = _disableTime;\r\n        emit StateUpdated(_newState, _disableTime);\r\n    }\r\n\r\n    /**\r\n     * @notice Retrieves the certificate data and its hash if active.\r\n     * @return The encrypted certificate data and document hash.\r\n     */\r\n    function getCertificate() external view returns (string memory, bytes32) {\r\n        require(state == State.Active, \"Certificate is not active.\");\r\n        return (data, hash);\r\n    }\r\n\r\n    /**\r\n     * @notice Updates the certificate data after re-encryption with a new view code.\r\n     * @param _newData The new encrypted certificate data.\r\n     */\r\n    function updateData(string memory _newData) external {\r\n        require(msg.sender == userAddress, \"Unauthorized: Only the user can update data.\");\r\n        data = _newData;\r\n        emit DataUpdated(_newData);\r\n    }\r\n}\r\n",
  "sourcePath": "C:\\Users\\nicky\\Desktop\\net-authorizing-system\\contracts\\Certificate.sol",
  "compiler": {
    "name": "solc",
    "version": "0.8.21+commit.d9974bed.Emscripten.clang"
  },
  "schemaVersion": "3.4.16",
  "updatedAt": "2025-02-05T11:31:16.166Z",
  "devdoc": {
    "errors": {
      "OwnableInvalidOwner(address)": [
        {
          "details": "The owner is not a valid owner account. (eg. `address(0)`)"
        }
      ],
      "OwnableUnauthorizedAccount(address)": [
        {
          "details": "The caller account is not authorized to perform an operation."
        }
      ]
    },
    "kind": "dev",
    "methods": {
      "activateCertificate(address,string)": {
        "params": {
          "_activeCode": "The activation code provided by the user.",
          "_userAddress": "The address of the user activating the certificate."
        }
      },
      "constructor": {
        "params": {
          "_activeCode": "The activation code for this certificate.",
          "_certificateAddress": "The address of the related certificate contract.",
          "_hash": "The hash of the certified document.",
          "_initialOwner": "The contract owner."
        }
      },
      "getCertificate()": {
        "returns": {
          "_0": "The encrypted certificate data and document hash."
        }
      },
      "owner()": {
        "details": "Returns the address of the current owner."
      },
      "renounceOwnership()": {
        "details": "Leaves the contract without owner. It will not be possible to call `onlyOwner` functions. Can only be called by the current owner. NOTE: Renouncing ownership will leave the contract without an owner, thereby disabling any functionality that is only available to the owner."
      },
      "transferOwnership(address)": {
        "details": "Transfers ownership of the contract to a new account (`newOwner`). Can only be called by the current owner."
      },
      "updateData(string)": {
        "params": {
          "_newData": "The new encrypted certificate data."
        }
      },
      "updateState(uint8,uint256)": {
        "params": {
          "_disableTime": "The timestamp when the certificate should auto-disable.",
          "_newState": "The new state to be set (Inactive, Active, Disabled)."
        }
      }
    },
    "title": "Certificate Contract",
    "version": 1
  },
  "userdoc": {
    "kind": "user",
    "methods": {
      "activateCertificate(address,string)": {
        "notice": "Activates the certificate if within time limit and valid activation code is provided."
      },
      "constructor": {
        "notice": "Constructor to initialize the certificate."
      },
      "getCertificate()": {
        "notice": "Retrieves the certificate data and its hash if active."
      },
      "updateData(string)": {
        "notice": "Updates the certificate data after re-encryption with a new view code."
      },
      "updateState(uint8,uint256)": {
        "notice": "Updates the certificate's state."
      }
    },
    "notice": "Manages digital certificates with secure activation, state control, and encrypted data handling.",
    "version": 1
  }
}