{
  "contractName": "Certificate",
  "abi": [
    {
      "inputs": [
        {
          "internalType": "string",
          "name": "_activeCode",
          "type": "string"
        },
        {
          "internalType": "string",
          "name": "_documentHash",
          "type": "string"
        },
        {
          "internalType": "string",
          "name": "_jsonHash",
          "type": "string"
        },
        {
          "internalType": "uint256",
          "name": "_disableTime",
          "type": "uint256"
        },
        {
          "internalType": "string",
          "name": "_certificateName",
          "type": "string"
        },
        {
          "internalType": "string",
          "name": "_orgName",
          "type": "string"
        }
      ],
      "stateMutability": "nonpayable",
      "type": "constructor"
    },
    {
      "anonymous": false,
      "inputs": [
        {
          "indexed": true,
          "internalType": "address",
          "name": "user",
          "type": "address"
        },
        {
          "indexed": false,
          "internalType": "uint256",
          "name": "timestamp",
          "type": "uint256"
        }
      ],
      "name": "CertificateActivated",
      "type": "event"
    },
    {
      "anonymous": false,
      "inputs": [
        {
          "indexed": false,
          "internalType": "enum Certificate.State",
          "name": "newState",
          "type": "uint8"
        },
        {
          "indexed": false,
          "internalType": "uint256",
          "name": "disableTime",
          "type": "uint256"
        }
      ],
      "name": "StateUpdated",
      "type": "event"
    },
    {
      "inputs": [],
      "name": "activeTime",
      "outputs": [
        {
          "internalType": "uint256",
          "name": "",
          "type": "uint256"
        }
      ],
      "stateMutability": "view",
      "type": "function"
    },
    {
      "inputs": [],
      "name": "certificateName",
      "outputs": [
        {
          "internalType": "string",
          "name": "",
          "type": "string"
        }
      ],
      "stateMutability": "view",
      "type": "function"
    },
    {
      "inputs": [],
      "name": "deployTime",
      "outputs": [
        {
          "internalType": "uint256",
          "name": "",
          "type": "uint256"
        }
      ],
      "stateMutability": "view",
      "type": "function"
    },
    {
      "inputs": [],
      "name": "disableTime",
      "outputs": [
        {
          "internalType": "uint256",
          "name": "",
          "type": "uint256"
        }
      ],
      "stateMutability": "view",
      "type": "function"
    },
    {
      "inputs": [],
      "name": "documentHash",
      "outputs": [
        {
          "internalType": "string",
          "name": "",
          "type": "string"
        }
      ],
      "stateMutability": "view",
      "type": "function"
    },
    {
      "inputs": [],
      "name": "jsonHash",
      "outputs": [
        {
          "internalType": "string",
          "name": "",
          "type": "string"
        }
      ],
      "stateMutability": "view",
      "type": "function"
    },
    {
      "inputs": [],
      "name": "orgName",
      "outputs": [
        {
          "internalType": "string",
          "name": "",
          "type": "string"
        }
      ],
      "stateMutability": "view",
      "type": "function"
    },
    {
      "inputs": [],
      "name": "state",
      "outputs": [
        {
          "internalType": "enum Certificate.State",
          "name": "",
          "type": "uint8"
        }
      ],
      "stateMutability": "view",
      "type": "function"
    },
    {
      "inputs": [],
      "name": "userAddress",
      "outputs": [
        {
          "internalType": "address",
          "name": "",
          "type": "address"
        }
      ],
      "stateMutability": "view",
      "type": "function"
    },
    {
      "inputs": [
        {
          "internalType": "address",
          "name": "_userAddress",
          "type": "address"
        },
        {
          "internalType": "string",
          "name": "_activeCode",
          "type": "string"
        },
        {
          "internalType": "string",
          "name": "_data",
          "type": "string"
        }
      ],
      "name": "activateCertificate",
      "outputs": [],
      "stateMutability": "nonpayable",
      "type": "function"
    },
    {
      "inputs": [
        {
          "internalType": "enum Certificate.State",
          "name": "_newState",
          "type": "uint8"
        },
        {
          "internalType": "uint256",
          "name": "_disableTime",
          "type": "uint256"
        }
      ],
      "name": "updateState",
      "outputs": [],
      "stateMutability": "nonpayable",
      "type": "function"
    },
    {
      "inputs": [],
      "name": "getCertificate",
      "outputs": [
        {
          "internalType": "string",
          "name": "",
          "type": "string"
        },
        {
          "internalType": "string",
          "name": "",
          "type": "string"
        },
        {
          "internalType": "string",
          "name": "",
          "type": "string"
        },
        {
          "internalType": "enum Certificate.State",
          "name": "",
          "type": "uint8"
        },
        {
          "internalType": "uint256",
          "name": "",
          "type": "uint256"
        },
        {
          "internalType": "string",
          "name": "",
          "type": "string"
        },
        {
          "internalType": "string",
          "name": "",
          "type": "string"
        }
      ],
      "stateMutability": "view",
      "type": "function"
    }
  ],
  "bytecode": "0x60806040523480156200001157600080fd5b5060405162001dcc38038062001dcc8339818101604052810190620000379190620003fa565b336000806101000a81548173ffffffffffffffffffffffffffffffffffffffff021916908373ffffffffffffffffffffffffffffffffffffffff16021790555085600790805190602001906200008f92919062000172565b506201518042620000a1919062000560565b6008819055508460039080519060200190620000bf92919062000172565b508360049080519060200190620000d892919062000172565b506000600b60006101000a81548160ff02191690836002811115620001025762000101620005bd565b5b021790555042600a8190555062015180836200011f9190620005ec565b600a546200012e919062000560565b60098190555081600590805190602001906200014c92919062000172565b5080600690805190602001906200016592919062000172565b50505050505050620006b1565b82805462000180906200067c565b90600052602060002090601f016020900481019282620001a45760008555620001f0565b82601f10620001bf57805160ff1916838001178555620001f0565b82800160010185558215620001f0579182015b82811115620001ef578251825591602001919060010190620001d2565b5b509050620001ff919062000203565b5090565b5b808211156200021e57600081600090555060010162000204565b5090565b6000604051905090565b600080fd5b600080fd5b600080fd5b600080fd5b6000601f19601f8301169050919050565b7f4e487b7100000000000000000000000000000000000000000000000000000000600052604160045260246000fd5b6200028b8262000240565b810181811067ffffffffffffffff82111715620002ad57620002ac62000251565b5b80604052505050565b6000620002c262000222565b9050620002d0828262000280565b919050565b600067ffffffffffffffff821115620002f357620002f262000251565b5b620002fe8262000240565b9050602081019050919050565b60005b838110156200032b5780820151818401526020810190506200030e565b838111156200033b576000848401525b50505050565b6000620003586200035284620002d5565b620002b6565b9050828152602081018484840111156200037757620003766200023b565b5b620003848482856200030b565b509392505050565b600082601f830112620003a457620003a362000236565b5b8151620003b684826020860162000341565b91505092915050565b6000819050919050565b620003d481620003bf565b8114620003e057600080fd5b50565b600081519050620003f481620003c9565b92915050565b60008060008060008060c087890312156200041a57620004196200022c565b5b600087015167ffffffffffffffff8111156200043b576200043a62000231565b5b6200044989828a016200038c565b965050602087015167ffffffffffffffff8111156200046d576200046c62000231565b5b6200047b89828a016200038c565b955050604087015167ffffffffffffffff8111156200049f576200049e62000231565b5b620004ad89828a016200038c565b9450506060620004c089828a01620003e3565b935050608087015167ffffffffffffffff811115620004e457620004e362000231565b5b620004f289828a016200038c565b92505060a087015167ffffffffffffffff81111562000516576200051562000231565b5b6200052489828a016200038c565b9150509295509295509295565b7f4e487b7100000000000000000000000000000000000000000000000000000000600052601160045260246000fd5b60006200056d82620003bf565b91506200057a83620003bf565b9250827fffffffffffffffffffffffffffffffffffffffffffffffffffffffffffffffff03821115620005b257620005b162000531565b5b828201905092915050565b7f4e487b7100000000000000000000000000000000000000000000000000000000600052602160045260246000fd5b6000620005f982620003bf565b91506200060683620003bf565b9250817fffffffffffffffffffffffffffffffffffffffffffffffffffffffffffffffff048311821515161562000642576200064162000531565b5b828202905092915050565b7f4e487b7100000000000000000000000000000000000000000000000000000000600052602260045260246000fd5b600060028204905060018216806200069557607f821691505b602082108103620006ab57620006aa6200064d565b5b50919050565b61170b80620006c16000396000f3fe608060405234801561001057600080fd5b50600436106100b35760003560e01c8063ac1a983311610071578063ac1a98331461016a578063ae15eb8e14610188578063b0dc3c5f146101ac578063c19d93fb146101c8578063cb8c478a146101e6578063e4128fb314610204576100b3565b806273c769146100b85780631386dc2d146100d6578063797bec77146100f45780637a40624b146101125780638af5ff6514610130578063948e19681461014c575b600080fd5b6100c0610222565b6040516100cd9190610d10565b60405180910390f35b6100de610228565b6040516100eb9190610dc4565b60405180910390f35b6100fc6102b6565b6040516101099190610dc4565b60405180910390f35b61011a610344565b6040516101279190610d10565b60405180910390f35b61014a60048036038101906101459190610e4b565b61034a565b005b610154610428565b6040516101619190610dc4565b60405180910390f35b6101726104b6565b60405161017f9190610dc4565b60405180910390f35b610190610544565b6040516101a39796959493929190610f02565b60405180910390f35b6101c660048036038101906101c19190611127565b61083f565b005b6101d0610a9b565b6040516101dd91906111b2565b60405180910390f35b6101ee610aae565b6040516101fb9190610d10565b60405180910390f35b61020c610ab4565b60405161021991906111dc565b60405180910390f35b60095481565b6006805461023590611226565b80601f016020809104026020016040519081016040528092919081815260200182805461026190611226565b80156102ae5780601f10610283576101008083540402835291602001916102ae565b820191906000526020600020905b81548152906001019060200180831161029157829003601f168201915b505050505081565b600380546102c390611226565b80601f01602080910402602001604051908101604052809291908181526020018280546102ef90611226565b801561033c5780601f106103115761010080835404028352916020019161033c565b820191906000526020600020905b81548152906001019060200180831161031f57829003601f168201915b505050505081565b600a5481565b60008054906101000a900473ffffffffffffffffffffffffffffffffffffffff1673ffffffffffffffffffffffffffffffffffffffff163373ffffffffffffffffffffffffffffffffffffffff16146103d8576040517f08c379a00000000000000000000000000000000000000000000000000000000081526004016103cf906112c9565b60405180910390fd5b62015180816103e79190611318565b600a546103f49190611372565b60098190555081600b60006101000a81548160ff0219169083600281111561041f5761041e610e8b565b5b02179055505050565b6005805461043590611226565b80601f016020809104026020016040519081016040528092919081815260200182805461046190611226565b80156104ae5780601f10610483576101008083540402835291602001916104ae565b820191906000526020600020905b81548152906001019060200180831161049157829003601f168201915b505050505081565b600480546104c390611226565b80601f01602080910402602001604051908101604052809291908181526020018280546104ef90611226565b801561053c5780601f106105115761010080835404028352916020019161053c565b820191906000526020600020905b81548152906001019060200180831161051f57829003601f168201915b505050505081565b6060806060600080606080600260036004600b60009054906101000a900460ff166009546005600686805461057890611226565b80601f01602080910402602001604051908101604052809291908181526020018280546105a490611226565b80156105f15780601f106105c6576101008083540402835291602001916105f1565b820191906000526020600020905b8154815290600101906020018083116105d457829003601f168201915b5050505050965085805461060490611226565b80601f016020809104026020016040519081016040528092919081815260200182805461063090611226565b801561067d5780601f106106525761010080835404028352916020019161067d565b820191906000526020600020905b81548152906001019060200180831161066057829003601f168201915b5050505050955084805461069090611226565b80601f01602080910402602001604051908101604052809291908181526020018280546106bc90611226565b80156107095780601f106106de57610100808354040283529160200191610709565b820191906000526020600020905b8154815290600101906020018083116106ec57829003601f168201915b5050505050945081805461071c90611226565b80601f016020809104026020016040519081016040528092919081815260200182805461074890611226565b80156107955780601f1061076a57610100808354040283529160200191610795565b820191906000526020600020905b81548152906001019060200180831161077857829003601f168201915b505050505091508080546107a890611226565b80601f01602080910402602001604051908101604052809291908181526020018280546107d490611226565b80156108215780601f106107f657610100808354040283529160200191610821565b820191906000526020600020905b81548152906001019060200180831161080457829003601f168201915b50505050509050965096509650965096509650965090919293949596565b600080600281111561085457610853610e8b565b5b600b60009054906101000a900460ff16600281111561087657610875610e8b565b5b1461088f600b60009054906101000a900460ff16610ada565b60405160200161089f91906114c2565b604051602081830303815290604052906108ef576040517f08c379a00000000000000000000000000000000000000000000000000000000081526004016108e69190610dc4565b60405180910390fd5b50600854421115610935576040517f08c379a000000000000000000000000000000000000000000000000000000000815260040161092c90611561565b60405180910390fd5b826040516020016109469190611581565b60405160208183030381529060405280519060200120600760405160200161096e919061162c565b60405160208183030381529060405280519060200120146109c4576040517f08c379a00000000000000000000000000000000000000000000000000000000081526004016109bb906116b5565b60405180910390fd5b83600160006101000a81548173ffffffffffffffffffffffffffffffffffffffff021916908373ffffffffffffffffffffffffffffffffffffffff1602179055506001600b60006101000a81548160ff02191690836002811115610a2b57610a2a610e8b565b5b02179055508160029080519060200190610a46929190610c54565b508373ffffffffffffffffffffffffffffffffffffffff167fa38f42bcea37e91a0edf5c8266d4f44854ea57559e2277111a14685ab81ea42742604051610a8d9190610d10565b60405180910390a250505050565b600b60009054906101000a900460ff1681565b60085481565b600160009054906101000a900473ffffffffffffffffffffffffffffffffffffffff1681565b606060006002811115610af057610aef610e8b565b5b826002811115610b0357610b02610e8b565b5b03610b45576040518060400160405280600881526020017f496e6163746976650000000000000000000000000000000000000000000000008152509050610c4f565b60016002811115610b5957610b58610e8b565b5b826002811115610b6c57610b6b610e8b565b5b03610bae576040518060400160405280600681526020017f41637469766500000000000000000000000000000000000000000000000000008152509050610c4f565b600280811115610bc157610bc0610e8b565b5b826002811115610bd457610bd3610e8b565b5b03610c16576040518060400160405280600881526020017f44697361626c65640000000000000000000000000000000000000000000000008152509050610c4f565b6040518060400160405280600781526020017f556e6b6e6f776e0000000000000000000000000000000000000000000000000081525090505b919050565b828054610c6090611226565b90600052602060002090601f016020900481019282610c825760008555610cc9565b82601f10610c9b57805160ff1916838001178555610cc9565b82800160010185558215610cc9579182015b82811115610cc8578251825591602001919060010190610cad565b5b509050610cd69190610cda565b5090565b5b80821115610cf3576000816000905550600101610cdb565b5090565b6000819050919050565b610d0a81610cf7565b82525050565b6000602082019050610d256000830184610d01565b92915050565b600081519050919050565b600082825260208201905092915050565b60005b83811015610d65578082015181840152602081019050610d4a565b83811115610d74576000848401525b50505050565b6000601f19601f8301169050919050565b6000610d9682610d2b565b610da08185610d36565b9350610db0818560208601610d47565b610db981610d7a565b840191505092915050565b60006020820190508181036000830152610dde8184610d8b565b905092915050565b6000604051905090565b600080fd5b600080fd5b60038110610e0757600080fd5b50565b600081359050610e1981610dfa565b92915050565b610e2881610cf7565b8114610e3357600080fd5b50565b600081359050610e4581610e1f565b92915050565b60008060408385031215610e6257610e61610df0565b5b6000610e7085828601610e0a565b9250506020610e8185828601610e36565b9150509250929050565b7f4e487b7100000000000000000000000000000000000000000000000000000000600052602160045260246000fd5b60038110610ecb57610eca610e8b565b5b50565b6000819050610edc82610eba565b919050565b6000610eec82610ece565b9050919050565b610efc81610ee1565b82525050565b600060e0820190508181036000830152610f1c818a610d8b565b90508181036020830152610f308189610d8b565b90508181036040830152610f448188610d8b565b9050610f536060830187610ef3565b610f606080830186610d01565b81810360a0830152610f728185610d8b565b905081810360c0830152610f868184610d8b565b905098975050505050505050565b600073ffffffffffffffffffffffffffffffffffffffff82169050919050565b6000610fbf82610f94565b9050919050565b610fcf81610fb4565b8114610fda57600080fd5b50565b600081359050610fec81610fc6565b92915050565b600080fd5b600080fd5b7f4e487b7100000000000000000000000000000000000000000000000000000000600052604160045260246000fd5b61103482610d7a565b810181811067ffffffffffffffff8211171561105357611052610ffc565b5b80604052505050565b6000611066610de6565b9050611072828261102b565b919050565b600067ffffffffffffffff82111561109257611091610ffc565b5b61109b82610d7a565b9050602081019050919050565b82818337600083830152505050565b60006110ca6110c584611077565b61105c565b9050828152602081018484840111156110e6576110e5610ff7565b5b6110f18482856110a8565b509392505050565b600082601f83011261110e5761110d610ff2565b5b813561111e8482602086016110b7565b91505092915050565b6000806000606084860312156111405761113f610df0565b5b600061114e86828701610fdd565b935050602084013567ffffffffffffffff81111561116f5761116e610df5565b5b61117b868287016110f9565b925050604084013567ffffffffffffffff81111561119c5761119b610df5565b5b6111a8868287016110f9565b9150509250925092565b60006020820190506111c76000830184610ef3565b92915050565b6111d681610fb4565b82525050565b60006020820190506111f160008301846111cd565b92915050565b7f4e487b7100000000000000000000000000000000000000000000000000000000600052602260045260246000fd5b6000600282049050600182168061123e57607f821691505b602082108103611251576112506111f7565b5b50919050565b7f5b43657274696669636174655d5b416464726573734572725d3a4e6f7420746860008201527f6520636f6e7472616374206f776e65722e000000000000000000000000000000602082015250565b60006112b3603183610d36565b91506112be82611257565b604082019050919050565b600060208201905081810360008301526112e2816112a6565b9050919050565b7f4e487b7100000000000000000000000000000000000000000000000000000000600052601160045260246000fd5b600061132382610cf7565b915061132e83610cf7565b9250817fffffffffffffffffffffffffffffffffffffffffffffffffffffffffffffffff0483118215151615611367576113666112e9565b5b828202905092915050565b600061137d82610cf7565b915061138883610cf7565b9250827fffffffffffffffffffffffffffffffffffffffffffffffffffffffffffffffff038211156113bd576113bc6112e9565b5b828201905092915050565b600081905092915050565b7f5b43657274696669636174655d5b53746174654572725d3a436f6e747261637460008201527f2069732000000000000000000000000000000000000000000000000000000000602082015250565b600061142f6024836113c8565b915061143a826113d3565b602482019050919050565b600061145082610d2b565b61145a81856113c8565b935061146a818560208601610d47565b80840191505092915050565b7f2e00000000000000000000000000000000000000000000000000000000000000600082015250565b60006114ac6001836113c8565b91506114b782611476565b600182019050919050565b60006114cd82611422565b91506114d98284611445565b91506114e48261149f565b915081905092915050565b7f5b43657274696669636174655d5b54696d654572725d3a41637469766174696f60008201527f6e2074696d6520657870697265642e0000000000000000000000000000000000602082015250565b600061154b602f83610d36565b9150611556826114ef565b604082019050919050565b6000602082019050818103600083015261157a8161153e565b9050919050565b600061158d8284611445565b915081905092915050565b60008190508160005260206000209050919050565b600081546115ba81611226565b6115c481866113c8565b945060018216600081146115df57600181146115f057611623565b60ff19831686528186019350611623565b6115f985611598565b60005b8381101561161b578154818901526001820191506020810190506115fc565b838801955050505b50505092915050565b600061163882846115ad565b915081905092915050565b7f5b43657274696669636174655d5b436f64654572725d3a496e76616c6964206160008201527f637469766174696f6e20636f64652e0000000000000000000000000000000000602082015250565b600061169f602f83610d36565b91506116aa82611643565b604082019050919050565b600060208201905081810360008301526116ce81611692565b905091905056fea26469706673582212204771092a33dc6fb0822c5e4b5b3ab4ed0ffbed7afbad15f60bdb45cb2d83b13964736f6c634300080d0033",
  "immutableReferences": {},
  "source": "// SPDX-License-Identifier: MIT\r\npragma solidity >=0.4.22 <0.9.0;\r\n\r\n/**\r\n * @title Certificate Contract\r\n * @notice This contract manages certificate data, state transitions, and activation processes.\r\n */\r\ncontract Certificate {\r\n    address private owner;\r\n    address public userAddress;\r\n\r\n    // Certificate data encrypted with user's view code\r\n    string private data;\r\n\r\n    // Hash of the certified document\r\n    string public documentHash;\r\n    string public jsonHash;\r\n\r\n    // Certificate name and organization name\r\n    string public certificateName;\r\n    string public orgName;\r\n\r\n    // Activation details\r\n    string private activeCode;\r\n    uint256 public activeTime;\r\n    uint256 public disableTime;\r\n    uint256 public deployTime;\r\n\r\n    // Enum to represent the current state of the certificate.\r\n    enum State { Inactive, Active, Disabled }\r\n    State public state;\r\n\r\n    // Events\r\n    event CertificateActivated(address indexed user, uint256 timestamp);\r\n    event StateUpdated(State newState, uint256 disableTime);\r\n\r\n    /**\r\n     * @notice Modifier to restrict functions to the contract owner.\r\n     */\r\n    modifier onlyOwner() {\r\n        require(msg.sender == owner, \"[Certificate][AddressErr]:Not the contract owner.\");\r\n        _;\r\n    }\r\n\r\n    /**\r\n     * @notice Modifier to allow only the linked user to access specific functions.\r\n     */\r\n    modifier onlyUser() {\r\n        require(msg.sender == userAddress, \"[Certificate][AddressErr]:Not the linked user.\");\r\n        _;\r\n    }\r\n\r\n    /**\r\n     * @notice Modifier to allow only the specific State to access specific functions.\r\n     */\r\n    function stateToString(State _state) internal pure returns (string memory) {\r\n        if (_state == State.Inactive) return \"Inactive\";\r\n        if (_state == State.Active) return \"Active\";\r\n        if (_state == State.Disabled) return \"Disabled\";\r\n        return \"Unknown\";\r\n    }\r\n\r\n    modifier checkState(State stateToCheck) {\r\n        require(state == stateToCheck, string(abi.encodePacked(\"[Certificate][StateErr]:Contract is \", stateToString(state), \".\")));\r\n        _;\r\n    }\r\n\r\n    /**\r\n     * @notice Initializes the Certificate contract with an owner and activation code.\r\n     * @param _activeCode The activation code for the certificate.\r\n     * @param _documentHash The hash of the certified document.\r\n     * @param _jsonHash The hash of the VP(Data).\r\n     * @param _disableTime The time limit for the certificate to be disabled.\r\n     * @param _certificateName The name of the certificate.\r\n     * @param _orgName The name of the organization issuing the certificate.\r\n     */\r\n    constructor(\r\n        string memory _activeCode,\r\n        string memory _documentHash,\r\n        string memory _jsonHash,\r\n        uint256 _disableTime,\r\n        string memory _certificateName,\r\n        string memory _orgName\r\n    ) {\r\n        owner = msg.sender;\r\n        activeCode = _activeCode;\r\n        activeTime = block.timestamp + 1 days; // Default time limit: 1 day\r\n        documentHash = _documentHash;\r\n        jsonHash = _jsonHash;\r\n        state = State.Inactive;\r\n        deployTime = block.timestamp;\r\n        disableTime = deployTime + (_disableTime * 1 days);\r\n        certificateName = _certificateName;\r\n        orgName = _orgName;\r\n    }\r\n\r\n    /**\r\n     * @notice Activates the certificate if within the activation time limit.\r\n     * @param _userAddress The address of the user activating the certificate.\r\n     * @param _activeCode The activation code provided by the user.\r\n     */\r\n    function activateCertificate(address _userAddress, string memory _activeCode, string memory _data) external checkState(State.Inactive){\r\n        require(block.timestamp <= activeTime, \"[Certificate][TimeErr]:Activation time expired.\");\r\n        require(keccak256(abi.encodePacked(activeCode)) == keccak256(abi.encodePacked(_activeCode)), \"[Certificate][CodeErr]:Invalid activation code.\");\r\n        userAddress = _userAddress;\r\n        state = State.Active;\r\n        data = _data;\r\n        emit CertificateActivated(_userAddress, block.timestamp);\r\n    }\r\n\r\n    /**\r\n     * @notice Updates the certificate's state and sets a disable time if needed.\r\n     * @param _newState Indicates the state of the certificate.\r\n     * @param _disableTime The timestamp when the certificate should be disabled .\r\n     */\r\n    function updateState(State _newState, uint256 _disableTime) external onlyOwner {\r\n        disableTime = deployTime + (_disableTime * 1 days);\r\n        state = _newState;\r\n    }\r\n\r\n    /**\r\n     * @notice Retrieves the certificate data and document hash.\r\n     * @return The encrypted data, document hash, VPHash, state, disable time, certificate name, and organization name.\r\n     */\r\n    function getCertificate() external view returns (\r\n        string memory,\r\n        string memory,\r\n        string memory,\r\n        State,\r\n        uint256,\r\n        string memory,\r\n        string memory\r\n    ) {\r\n        return (data, documentHash, jsonHash, state, disableTime, certificateName, orgName);\r\n    }\r\n\r\n}\r\n",
  "sourcePath": "C:\\Users\\nicky\\Desktop\\net-authorizing-system\\contracts\\Certificate.sol",
  "compiler": {
    "name": "solc",
    "version": "0.8.13+commit.abaa5c0e.Emscripten.clang"
  },
  "schemaVersion": "3.4.16",
  "updatedAt": "2025-02-13T16:42:36.558Z",
  "devdoc": {
    "kind": "dev",
    "methods": {
      "activateCertificate(address,string,string)": {
        "params": {
          "_activeCode": "The activation code provided by the user.",
          "_userAddress": "The address of the user activating the certificate."
        }
      },
      "constructor": {
        "params": {
          "_activeCode": "The activation code for the certificate.",
          "_certificateName": "The name of the certificate.",
          "_disableTime": "The time limit for the certificate to be disabled.",
          "_documentHash": "The hash of the certified document.",
          "_jsonHash": "The hash of the VP(Data).",
          "_orgName": "The name of the organization issuing the certificate."
        }
      },
      "getCertificate()": {
        "returns": {
          "_0": "The encrypted data, document hash, VPHash, state, disable time, certificate name, and organization name."
        }
      },
      "updateState(uint8,uint256)": {
        "params": {
          "_disableTime": "The timestamp when the certificate should be disabled .",
          "_newState": "Indicates the state of the certificate."
        }
      }
    },
    "title": "Certificate Contract",
    "version": 1
  },
  "userdoc": {
    "kind": "user",
    "methods": {
      "activateCertificate(address,string,string)": {
        "notice": "Activates the certificate if within the activation time limit."
      },
      "constructor": {
        "notice": "Initializes the Certificate contract with an owner and activation code."
      },
      "getCertificate()": {
        "notice": "Retrieves the certificate data and document hash."
      },
      "updateState(uint8,uint256)": {
        "notice": "Updates the certificate's state and sets a disable time if needed."
      }
    },
    "notice": "This contract manages certificate data, state transitions, and activation processes.",
    "version": 1
  }
}