{
  "contractName": "Factory",
  "abi": [
    {
      "anonymous": false,
      "inputs": [
        {
          "indexed": true,
          "internalType": "address",
          "name": "user",
          "type": "address"
        },
        {
          "indexed": false,
          "internalType": "address",
          "name": "contractAddress",
          "type": "address"
        },
        {
          "indexed": false,
          "internalType": "uint256",
          "name": "timestamp",
          "type": "uint256"
        }
      ],
      "name": "UserRegistered",
      "type": "event"
    },
    {
      "inputs": [
        {
          "internalType": "address",
          "name": "",
          "type": "address"
        }
      ],
      "name": "userToContract",
      "outputs": [
        {
          "internalType": "address",
          "name": "",
          "type": "address"
        }
      ],
      "stateMutability": "view",
      "type": "function"
    },
    {
      "inputs": [
        {
          "internalType": "address",
          "name": "userAddress",
          "type": "address"
        },
        {
          "internalType": "address",
          "name": "contractAddress",
          "type": "address"
        }
      ],
      "name": "add",
      "outputs": [],
      "stateMutability": "nonpayable",
      "type": "function"
    },
    {
      "inputs": [
        {
          "internalType": "address",
          "name": "userAddress",
          "type": "address"
        }
      ],
      "name": "find",
      "outputs": [
        {
          "internalType": "address",
          "name": "",
          "type": "address"
        }
      ],
      "stateMutability": "view",
      "type": "function"
    }
  ],
  "bytecode": "0x608060405234801561000f575f80fd5b506105a08061001d5f395ff3fe608060405234801561000f575f80fd5b506004361061003f575f3560e01c806351cdac6b1461004357806352c28fab14610073578063f5bf19111461008f575b5f80fd5b61005d600480360381019061005891906103ba565b6100bf565b60405161006a91906103f4565b60405180910390f35b61008d6004803603810190610088919061040d565b610196565b005b6100a960048036038101906100a491906103ba565b61032d565b6040516100b691906103f4565b60405180910390f35b5f805f808473ffffffffffffffffffffffffffffffffffffffff1673ffffffffffffffffffffffffffffffffffffffff1681526020019081526020015f205f9054906101000a900473ffffffffffffffffffffffffffffffffffffffff1690505f73ffffffffffffffffffffffffffffffffffffffff168173ffffffffffffffffffffffffffffffffffffffff160361018d576040517f08c379a0000000000000000000000000000000000000000000000000000000008152600401610184906104a5565b60405180910390fd5b80915050919050565b5f73ffffffffffffffffffffffffffffffffffffffff165f808473ffffffffffffffffffffffffffffffffffffffff1673ffffffffffffffffffffffffffffffffffffffff1681526020019081526020015f205f9054906101000a900473ffffffffffffffffffffffffffffffffffffffff1673ffffffffffffffffffffffffffffffffffffffff161461025f576040517f08c379a00000000000000000000000000000000000000000000000000000000081526004016102569061050d565b60405180910390fd5b805f808473ffffffffffffffffffffffffffffffffffffffff1673ffffffffffffffffffffffffffffffffffffffff1681526020019081526020015f205f6101000a81548173ffffffffffffffffffffffffffffffffffffffff021916908373ffffffffffffffffffffffffffffffffffffffff1602179055508173ffffffffffffffffffffffffffffffffffffffff167f05345a91f639184e946e5aac384b1e9f74ae9ab08d775a7deddb3180cebecb238242604051610321929190610543565b60405180910390a25050565b5f602052805f5260405f205f915054906101000a900473ffffffffffffffffffffffffffffffffffffffff1681565b5f80fd5b5f73ffffffffffffffffffffffffffffffffffffffff82169050919050565b5f61038982610360565b9050919050565b6103998161037f565b81146103a3575f80fd5b50565b5f813590506103b481610390565b92915050565b5f602082840312156103cf576103ce61035c565b5b5f6103dc848285016103a6565b91505092915050565b6103ee8161037f565b82525050565b5f6020820190506104075f8301846103e5565b92915050565b5f80604083850312156104235761042261035c565b5b5f610430858286016103a6565b9250506020610441858286016103a6565b9150509250929050565b5f82825260208201905092915050565b7f4e6f207375636820757365722e000000000000000000000000000000000000005f82015250565b5f61048f600d8361044b565b915061049a8261045b565b602082019050919050565b5f6020820190508181035f8301526104bc81610483565b9050919050565b7f5573657220616c726561647920726567697374657265642e00000000000000005f82015250565b5f6104f760188361044b565b9150610502826104c3565b602082019050919050565b5f6020820190508181035f830152610524816104eb565b9050919050565b5f819050919050565b61053d8161052b565b82525050565b5f6040820190506105565f8301856103e5565b6105636020830184610534565b939250505056fea2646970667358221220b3b0aae7e33cbf214a3163beca0754fecf9383904c95e373e9e2d3c3eb6e3c5964736f6c63430008150033",
  "immutableReferences": {},
  "source": "// SPDX-License-Identifier: MIT\r\npragma solidity ^0.8.0;\r\n\r\ncontract Factory {\r\n    // Mapping to store user addresses and their corresponding contract addresses\r\n    mapping(address => address) public userToContract;\r\n\r\n    /**\r\n     * @notice Event emitted when a new user is registered.\r\n     * @param user The address of the newly registered user.\r\n     * @param contractAddress The contract address associated with the user.\r\n     * @param timestamp The timestamp when the registration took place.\r\n     */\r\n    event UserRegistered(address indexed user, address contractAddress, uint256 timestamp);\r\n\r\n    /**\r\n     * @notice Registers a new user by associating their address with a contract address.\r\n     * @dev Anyone can call this function to add users.\r\n     * @param userAddress The address of the user to register.\r\n     * @param contractAddress The contract address to associate with the user.\r\n     */\r\n    function add(address userAddress, address contractAddress) public {\r\n        // Ensure that the user is not already registered\r\n        require(userToContract[userAddress] == address(0), \"User already registered.\");\r\n\r\n        // Register the user with their contract address\r\n        userToContract[userAddress] = contractAddress;\r\n\r\n        // Emit the UserRegistered event with the current timestamp\r\n        emit UserRegistered(userAddress, contractAddress, block.timestamp);\r\n    }\r\n\r\n    /**\r\n     * @notice Retrieves the contract address associated with a specific user.\r\n     * @dev This function is publicly viewable and does not modify the blockchain state.\r\n     * @param userAddress The address of the user whose contract address is being queried.\r\n     * @return The contract address associated with the user.\r\n     */\r\n    function find(address userAddress) public view returns (address) {\r\n        address contractAddr = userToContract[userAddress];\r\n        require(contractAddr != address(0), \"No such user.\");\r\n        return contractAddr;\r\n    }\r\n}\r\n",
  "sourcePath": "C:\\Users\\nicky\\Desktop\\net-authorizing-system\\contracts\\Factory.sol",
  "compiler": {
    "name": "solc",
    "version": "0.8.21+commit.d9974bed.Emscripten.clang"
  },
  "schemaVersion": "3.4.16",
  "updatedAt": "2025-02-05T11:31:16.178Z",
  "devdoc": {
    "events": {
      "UserRegistered(address,address,uint256)": {
        "params": {
          "contractAddress": "The contract address associated with the user.",
          "timestamp": "The timestamp when the registration took place.",
          "user": "The address of the newly registered user."
        }
      }
    },
    "kind": "dev",
    "methods": {
      "add(address,address)": {
        "details": "Anyone can call this function to add users.",
        "params": {
          "contractAddress": "The contract address to associate with the user.",
          "userAddress": "The address of the user to register."
        }
      },
      "find(address)": {
        "details": "This function is publicly viewable and does not modify the blockchain state.",
        "params": {
          "userAddress": "The address of the user whose contract address is being queried."
        },
        "returns": {
          "_0": "The contract address associated with the user."
        }
      }
    },
    "version": 1
  },
  "userdoc": {
    "events": {
      "UserRegistered(address,address,uint256)": {
        "notice": "Event emitted when a new user is registered."
      }
    },
    "kind": "user",
    "methods": {
      "add(address,address)": {
        "notice": "Registers a new user by associating their address with a contract address."
      },
      "find(address)": {
        "notice": "Retrieves the contract address associated with a specific user."
      }
    },
    "version": 1
  }
}