{
  "contractName": "Factory",
  "abi": [
    {
      "anonymous": false,
      "inputs": [
        {
          "indexed": true,
          "internalType": "address",
          "name": "user",
          "type": "address"
        },
        {
          "indexed": false,
          "internalType": "address",
          "name": "contractAddress",
          "type": "address"
        },
        {
          "indexed": false,
          "internalType": "uint256",
          "name": "timestamp",
          "type": "uint256"
        }
      ],
      "name": "UserRegistered",
      "type": "event"
    },
    {
      "inputs": [
        {
          "internalType": "address",
          "name": "",
          "type": "address"
        }
      ],
      "name": "userToContract",
      "outputs": [
        {
          "internalType": "address",
          "name": "",
          "type": "address"
        }
      ],
      "stateMutability": "view",
      "type": "function"
    },
    {
      "inputs": [
        {
          "internalType": "address",
          "name": "userAddress",
          "type": "address"
        },
        {
          "internalType": "address",
          "name": "contractAddress",
          "type": "address"
        }
      ],
      "name": "add",
      "outputs": [],
      "stateMutability": "nonpayable",
      "type": "function"
    },
    {
      "inputs": [
        {
          "internalType": "address",
          "name": "userAddress",
          "type": "address"
        }
      ],
      "name": "find",
      "outputs": [
        {
          "internalType": "address",
          "name": "",
          "type": "address"
        }
      ],
      "stateMutability": "view",
      "type": "function"
    }
  ],
  "bytecode": "0x608060405234801561001057600080fd5b506105ca806100206000396000f3fe608060405234801561001057600080fd5b50600436106100415760003560e01c806351cdac6b1461004657806352c28fab14610076578063f5bf191114610092575b600080fd5b610060600480360381019061005b91906103d2565b6100c2565b60405161006d919061040e565b60405180910390f35b610090600480360381019061008b9190610429565b61019e565b005b6100ac60048036038101906100a791906103d2565b61033c565b6040516100b9919061040e565b60405180910390f35b6000806000808473ffffffffffffffffffffffffffffffffffffffff1673ffffffffffffffffffffffffffffffffffffffff16815260200190815260200160002060009054906101000a900473ffffffffffffffffffffffffffffffffffffffff169050600073ffffffffffffffffffffffffffffffffffffffff168173ffffffffffffffffffffffffffffffffffffffff1603610195576040517f08c379a000000000000000000000000000000000000000000000000000000000815260040161018c906104c6565b60405180910390fd5b80915050919050565b600073ffffffffffffffffffffffffffffffffffffffff166000808473ffffffffffffffffffffffffffffffffffffffff1673ffffffffffffffffffffffffffffffffffffffff16815260200190815260200160002060009054906101000a900473ffffffffffffffffffffffffffffffffffffffff1673ffffffffffffffffffffffffffffffffffffffff161461026b576040517f08c379a000000000000000000000000000000000000000000000000000000000815260040161026290610532565b60405180910390fd5b806000808473ffffffffffffffffffffffffffffffffffffffff1673ffffffffffffffffffffffffffffffffffffffff16815260200190815260200160002060006101000a81548173ffffffffffffffffffffffffffffffffffffffff021916908373ffffffffffffffffffffffffffffffffffffffff1602179055508173ffffffffffffffffffffffffffffffffffffffff167f05345a91f639184e946e5aac384b1e9f74ae9ab08d775a7deddb3180cebecb23824260405161033092919061056b565b60405180910390a25050565b60006020528060005260406000206000915054906101000a900473ffffffffffffffffffffffffffffffffffffffff1681565b600080fd5b600073ffffffffffffffffffffffffffffffffffffffff82169050919050565b600061039f82610374565b9050919050565b6103af81610394565b81146103ba57600080fd5b50565b6000813590506103cc816103a6565b92915050565b6000602082840312156103e8576103e761036f565b5b60006103f6848285016103bd565b91505092915050565b61040881610394565b82525050565b600060208201905061042360008301846103ff565b92915050565b600080604083850312156104405761043f61036f565b5b600061044e858286016103bd565b925050602061045f858286016103bd565b9150509250929050565b600082825260208201905092915050565b7f4e6f207375636820757365722e00000000000000000000000000000000000000600082015250565b60006104b0600d83610469565b91506104bb8261047a565b602082019050919050565b600060208201905081810360008301526104df816104a3565b9050919050565b7f5573657220616c726561647920726567697374657265642e0000000000000000600082015250565b600061051c601883610469565b9150610527826104e6565b602082019050919050565b6000602082019050818103600083015261054b8161050f565b9050919050565b6000819050919050565b61056581610552565b82525050565b600060408201905061058060008301856103ff565b61058d602083018461055c565b939250505056fea264697066735822122054655afb20530cf29dc19a7881b08e1752653caa3e7862951b95f92b1894f81064736f6c634300080d0033",
  "immutableReferences": {},
  "source": "// SPDX-License-Identifier: MIT\r\npragma solidity >=0.4.22 <0.9.0;\r\n\r\ncontract Factory {\r\n    // Mapping to store user addresses and their corresponding contract addresses\r\n    mapping(address => address) public userToContract;\r\n\r\n    /**\r\n     * @notice Event emitted when a new user is registered.\r\n     * @param user The address of the newly registered user.\r\n     * @param contractAddress The contract address associated with the user.\r\n     * @param timestamp The timestamp when the registration took place.\r\n     */\r\n    event UserRegistered(address indexed user, address contractAddress, uint256 timestamp);\r\n\r\n    /**\r\n     * @notice Registers a new user by associating their address with a contract address.\r\n     * @dev Anyone can call this function to add users.\r\n     * @param userAddress The address of the user to register.\r\n     * @param contractAddress The contract address to associate with the user.\r\n     */\r\n    function add(address userAddress, address contractAddress) public {\r\n        // Ensure that the user is not already registered\r\n        require(userToContract[userAddress] == address(0), \"User already registered.\");\r\n\r\n        // Register the user with their contract address\r\n        userToContract[userAddress] = contractAddress;\r\n\r\n        // Emit the UserRegistered event with the current timestamp\r\n        emit UserRegistered(userAddress, contractAddress, block.timestamp);\r\n    }\r\n\r\n    /**\r\n     * @notice Retrieves the contract address associated with a specific user.\r\n     * @dev This function is publicly viewable and does not modify the blockchain state.\r\n     * @param userAddress The address of the user whose contract address is being queried.\r\n     * @return The contract address associated with the user.\r\n     */\r\n    function find(address userAddress) public view returns (address) {\r\n        address contractAddr = userToContract[userAddress];\r\n        require(contractAddr != address(0), \"No such user.\");\r\n        return contractAddr;\r\n    }\r\n}\r\n",
  "sourcePath": "C:\\Users\\nicky\\Desktop\\net-authorizing-system\\contracts\\Factory.sol",
  "compiler": {
    "name": "solc",
    "version": "0.8.13+commit.abaa5c0e.Emscripten.clang"
  },
  "schemaVersion": "3.4.16",
  "updatedAt": "2025-02-16T21:18:10.896Z",
  "devdoc": {
    "events": {
      "UserRegistered(address,address,uint256)": {
        "params": {
          "contractAddress": "The contract address associated with the user.",
          "timestamp": "The timestamp when the registration took place.",
          "user": "The address of the newly registered user."
        }
      }
    },
    "kind": "dev",
    "methods": {
      "add(address,address)": {
        "details": "Anyone can call this function to add users.",
        "params": {
          "contractAddress": "The contract address to associate with the user.",
          "userAddress": "The address of the user to register."
        }
      },
      "find(address)": {
        "details": "This function is publicly viewable and does not modify the blockchain state.",
        "params": {
          "userAddress": "The address of the user whose contract address is being queried."
        },
        "returns": {
          "_0": "The contract address associated with the user."
        }
      }
    },
    "version": 1
  },
  "userdoc": {
    "events": {
      "UserRegistered(address,address,uint256)": {
        "notice": "Event emitted when a new user is registered."
      }
    },
    "kind": "user",
    "methods": {
      "add(address,address)": {
        "notice": "Registers a new user by associating their address with a contract address."
      },
      "find(address)": {
        "notice": "Retrieves the contract address associated with a specific user."
      }
    },
    "version": 1
  }
}