{
  "contractName": "User",
  "abi": [
    {
      "inputs": [],
      "stateMutability": "nonpayable",
      "type": "constructor"
    },
    {
      "inputs": [],
      "name": "getOwner",
      "outputs": [
        {
          "internalType": "address",
          "name": "",
          "type": "address"
        }
      ],
      "stateMutability": "view",
      "type": "function"
    },
    {
      "inputs": [
        {
          "internalType": "address",
          "name": "_certificate",
          "type": "address"
        }
      ],
      "name": "addCertificate",
      "outputs": [],
      "stateMutability": "nonpayable",
      "type": "function"
    },
    {
      "inputs": [
        {
          "internalType": "address",
          "name": "_certificate",
          "type": "address"
        }
      ],
      "name": "addCertifiedCertificate",
      "outputs": [],
      "stateMutability": "nonpayable",
      "type": "function"
    },
    {
      "inputs": [],
      "name": "getCertificates",
      "outputs": [
        {
          "internalType": "address[]",
          "name": "certificates",
          "type": "address[]"
        }
      ],
      "stateMutability": "view",
      "type": "function"
    },
    {
      "inputs": [],
      "name": "getCertifiedCertificates",
      "outputs": [
        {
          "internalType": "address[]",
          "name": "certifiedCerts",
          "type": "address[]"
        }
      ],
      "stateMutability": "view",
      "type": "function"
    }
  ],
  "bytecode": "0x608060405234801561001057600080fd5b50336000806101000a81548173ffffffffffffffffffffffffffffffffffffffff021916908373ffffffffffffffffffffffffffffffffffffffff1602179055506108ea806100606000396000f3fe608060405234801561001057600080fd5b50600436106100575760003560e01c806315dbab891461005c5780631f5ddb4f146100785780635a58cb08146100965780637c6ebde9146100b4578063893d20e8146100d0575b600080fd5b61007660048036038101906100719190610648565b6100ee565b005b6100806102c7565b60405161008d9190610733565b60405180910390f35b61009e610355565b6040516100ab9190610733565b60405180910390f35b6100ce60048036038101906100c99190610648565b6103e3565b005b6100d86105bc565b6040516100e59190610764565b60405180910390f35b60008054906101000a900473ffffffffffffffffffffffffffffffffffffffff1673ffffffffffffffffffffffffffffffffffffffff163373ffffffffffffffffffffffffffffffffffffffff161461017c576040517f08c379a000000000000000000000000000000000000000000000000000000000815260040161017390610802565b60405180910390fd5b600460008273ffffffffffffffffffffffffffffffffffffffff1673ffffffffffffffffffffffffffffffffffffffff16815260200190815260200160002060009054906101000a900460ff1615610209576040517f08c379a000000000000000000000000000000000000000000000000000000000815260040161020090610894565b60405180910390fd5b6003819080600181540180825580915050600190039060005260206000200160009091909190916101000a81548173ffffffffffffffffffffffffffffffffffffffff021916908373ffffffffffffffffffffffffffffffffffffffff1602179055506001600460008373ffffffffffffffffffffffffffffffffffffffff1673ffffffffffffffffffffffffffffffffffffffff16815260200190815260200160002060006101000a81548160ff02191690831515021790555050565b6060600180548060200260200160405190810160405280929190818152602001828054801561034b57602002820191906000526020600020905b8160009054906101000a900473ffffffffffffffffffffffffffffffffffffffff1673ffffffffffffffffffffffffffffffffffffffff1681526020019060010190808311610301575b5050505050905090565b606060038054806020026020016040519081016040528092919081815260200182805480156103d957602002820191906000526020600020905b8160009054906101000a900473ffffffffffffffffffffffffffffffffffffffff1673ffffffffffffffffffffffffffffffffffffffff168152602001906001019080831161038f575b5050505050905090565b60008054906101000a900473ffffffffffffffffffffffffffffffffffffffff1673ffffffffffffffffffffffffffffffffffffffff163373ffffffffffffffffffffffffffffffffffffffff1614610471576040517f08c379a000000000000000000000000000000000000000000000000000000000815260040161046890610802565b60405180910390fd5b600260008273ffffffffffffffffffffffffffffffffffffffff1673ffffffffffffffffffffffffffffffffffffffff16815260200190815260200160002060009054906101000a900460ff16156104fe576040517f08c379a00000000000000000000000000000000000000000000000000000000081526004016104f590610894565b60405180910390fd5b6001819080600181540180825580915050600190039060005260206000200160009091909190916101000a81548173ffffffffffffffffffffffffffffffffffffffff021916908373ffffffffffffffffffffffffffffffffffffffff1602179055506001600260008373ffffffffffffffffffffffffffffffffffffffff1673ffffffffffffffffffffffffffffffffffffffff16815260200190815260200160002060006101000a81548160ff02191690831515021790555050565b60008060009054906101000a900473ffffffffffffffffffffffffffffffffffffffff16905090565b600080fd5b600073ffffffffffffffffffffffffffffffffffffffff82169050919050565b6000610615826105ea565b9050919050565b6106258161060a565b811461063057600080fd5b50565b6000813590506106428161061c565b92915050565b60006020828403121561065e5761065d6105e5565b5b600061066c84828501610633565b91505092915050565b600081519050919050565b600082825260208201905092915050565b6000819050602082019050919050565b6106aa8161060a565b82525050565b60006106bc83836106a1565b60208301905092915050565b6000602082019050919050565b60006106e082610675565b6106ea8185610680565b93506106f583610691565b8060005b8381101561072657815161070d88826106b0565b9750610718836106c8565b9250506001810190506106f9565b5085935050505092915050565b6000602082019050818103600083015261074d81846106d5565b905092915050565b61075e8161060a565b82525050565b60006020820190506107796000830184610755565b92915050565b600082825260208201905092915050565b7f5b557365725d5b416464726573734572725d3a4e6f742074686520636f6e747260008201527f616374206f776e65722e00000000000000000000000000000000000000000000602082015250565b60006107ec602a8361077f565b91506107f782610790565b604082019050919050565b6000602082019050818103600083015261081b816107df565b9050919050565b7f5b557365725d5b416464726573734572725d3a4365727469666963617465206160008201527f6c72656164792065786973747300000000000000000000000000000000000000602082015250565b600061087e602d8361077f565b915061088982610822565b604082019050919050565b600060208201905081810360008301526108ad81610871565b905091905056fea26469706673582212201f3c4fd8ff67a7e66cbf6d5223ed229524182a778089e3d8df9608f75c25084664736f6c634300080d0033",
  "immutableReferences": {},
  "source": "// SPDX-License-Identifier: MIT\r\npragma solidity >=0.4.22 <0.9.0;\r\n\r\n/**\r\n * @title User Contract\r\n * @notice This contract represents a user's profile, storing certified certificates and encrypted view codes.\r\n */\r\ncontract User {\r\n    address private owner;\r\n\r\n    // Array to store addresses of certified certificates\r\n    address[] private certificatesList;\r\n    mapping(address => bool) private isInCertificatesList; // Track existence\r\n\r\n    // Array to store addresses of certified certificates\r\n    address[] private certifiedCertificates;\r\n    mapping(address => bool) private isInCertifiedList; // Track existence\r\n\r\n\r\n    /**\r\n     * @notice Modifier to restrict functions to the contract owner.\r\n     */\r\n    modifier onlyOwner() {\r\n        require(msg.sender == owner, \"[User][AddressErr]:Not the contract owner.\");\r\n        _;\r\n    }\r\n    \r\n    /**\r\n     * @notice Initializes the User contract and sets the contract owner.\r\n     */\r\n    constructor() {\r\n        owner = msg.sender;\r\n    }\r\n\r\n    /**\r\n     * @notice Gets the contract owner address\r\n     * @return The address of the contract owner\r\n     */\r\n    function getOwner() external view returns (address) {\r\n        return owner;\r\n    }\r\n\r\n    /**\r\n     * @notice Adds a certificate to the general list.\r\n     * @param _certificate The address of the certificate to add.\r\n     * @dev Reverts if the certificate already exists.\r\n     */\r\n    function addCertificate(address _certificate) external onlyOwner {\r\n        require(!isInCertificatesList[_certificate], \"[User][AddressErr]:Certificate already exists\");\r\n        certificatesList.push(_certificate);\r\n        isInCertificatesList[_certificate] = true;\r\n    }\r\n\r\n    /**\r\n     * @notice Adds a certificate to the certified list.\r\n     * @param _certificate The address of the certificate to certify.\r\n     * @dev Reverts if the certificate is already certified.\r\n     */\r\n    function addCertifiedCertificate(address _certificate) external onlyOwner {\r\n        require(!isInCertifiedList[_certificate], \"[User][AddressErr]:Certificate already exists\");\r\n        certifiedCertificates.push(_certificate);\r\n        isInCertifiedList[_certificate] = true;\r\n    }\r\n\r\n    /**\r\n     * @notice Gets all stored certificates.\r\n     * @return certificates An array of certificate addresses.\r\n     * @dev Output example: [\"0x123...\", \"0x456...\", \"0x789...\"]\r\n     */\r\n    function getCertificates() external view returns (address[] memory certificates) {\r\n        return certificatesList;\r\n    }\r\n\r\n    /*\r\n     * @notice Gets all certified certificates.\r\n     * @return certifiedCerts An array of certified certificate addresses.\r\n     * @dev Output example: [\"0xabc...\", \"0xdef...\", \"0xghi...\"]\r\n     */\r\n    function getCertifiedCertificates() external view returns (address[] memory certifiedCerts) {\r\n        return certifiedCertificates;\r\n    }\r\n\r\n}\r\n",
  "sourcePath": "C:\\Users\\nicky\\Desktop\\net-authorizing-system\\contracts\\User.sol",
  "compiler": {
    "name": "solc",
    "version": "0.8.13+commit.abaa5c0e.Emscripten.clang"
  },
  "schemaVersion": "3.4.16",
  "updatedAt": "2025-02-16T23:18:50.798Z",
  "devdoc": {
    "kind": "dev",
    "methods": {
      "addCertificate(address)": {
        "details": "Reverts if the certificate already exists.",
        "params": {
          "_certificate": "The address of the certificate to add."
        }
      },
      "addCertifiedCertificate(address)": {
        "details": "Reverts if the certificate is already certified.",
        "params": {
          "_certificate": "The address of the certificate to certify."
        }
      },
      "getCertificates()": {
        "details": "Output example: [\"0x123...\", \"0x456...\", \"0x789...\"]",
        "returns": {
          "certificates": "An array of certificate addresses."
        }
      },
      "getOwner()": {
        "returns": {
          "_0": "The address of the contract owner"
        }
      }
    },
    "title": "User Contract",
    "version": 1
  },
  "userdoc": {
    "kind": "user",
    "methods": {
      "addCertificate(address)": {
        "notice": "Adds a certificate to the general list."
      },
      "addCertifiedCertificate(address)": {
        "notice": "Adds a certificate to the certified list."
      },
      "constructor": {
        "notice": "Initializes the User contract and sets the contract owner."
      },
      "getCertificates()": {
        "notice": "Gets all stored certificates."
      },
      "getOwner()": {
        "notice": "Gets the contract owner address"
      }
    },
    "notice": "This contract represents a user's profile, storing certified certificates and encrypted view codes.",
    "version": 1
  }
}