{
  "contractName": "User",
  "abi": [
    {
      "inputs": [],
      "stateMutability": "nonpayable",
      "type": "constructor"
    },
    {
      "inputs": [
        {
          "internalType": "address",
          "name": "_certificate",
          "type": "address"
        }
      ],
      "name": "addCertificate",
      "outputs": [],
      "stateMutability": "nonpayable",
      "type": "function"
    },
    {
      "inputs": [
        {
          "internalType": "address",
          "name": "_certificate",
          "type": "address"
        }
      ],
      "name": "addCertifiedCertificate",
      "outputs": [],
      "stateMutability": "nonpayable",
      "type": "function"
    },
    {
      "inputs": [],
      "name": "getCertificates",
      "outputs": [
        {
          "internalType": "address[]",
          "name": "certificates",
          "type": "address[]"
        }
      ],
      "stateMutability": "view",
      "type": "function",
      "constant": true
    },
    {
      "inputs": [],
      "name": "getCertifiedCertificates",
      "outputs": [
        {
          "internalType": "address[]",
          "name": "certifiedCerts",
          "type": "address[]"
        }
      ],
      "stateMutability": "view",
      "type": "function",
      "constant": true
    }
  ],
  "bytecode": "0x608060405234801561001057600080fd5b50336000806101000a81548173ffffffffffffffffffffffffffffffffffffffff021916908373ffffffffffffffffffffffffffffffffffffffff1602179055506106c0806100606000396000f3fe608060405234801561001057600080fd5b506004361061004c5760003560e01c806315dbab89146100515780631f5ddb4f1461006d5780635a58cb081461008b5780637c6ebde9146100a9575b600080fd5b61006b600480360381019061006691906104da565b6100c5565b005b610075610210565b60405161008291906105c5565b60405180910390f35b61009361029e565b6040516100a091906105c5565b60405180910390f35b6100c360048036038101906100be91906104da565b61032c565b005b600460008273ffffffffffffffffffffffffffffffffffffffff1673ffffffffffffffffffffffffffffffffffffffff16815260200190815260200160002060009054906101000a900460ff1615610152576040517f08c379a00000000000000000000000000000000000000000000000000000000081526004016101499061066a565b60405180910390fd5b6003819080600181540180825580915050600190039060005260206000200160009091909190916101000a81548173ffffffffffffffffffffffffffffffffffffffff021916908373ffffffffffffffffffffffffffffffffffffffff1602179055506001600460008373ffffffffffffffffffffffffffffffffffffffff1673ffffffffffffffffffffffffffffffffffffffff16815260200190815260200160002060006101000a81548160ff02191690831515021790555050565b6060600180548060200260200160405190810160405280929190818152602001828054801561029457602002820191906000526020600020905b8160009054906101000a900473ffffffffffffffffffffffffffffffffffffffff1673ffffffffffffffffffffffffffffffffffffffff168152602001906001019080831161024a575b5050505050905090565b6060600380548060200260200160405190810160405280929190818152602001828054801561032257602002820191906000526020600020905b8160009054906101000a900473ffffffffffffffffffffffffffffffffffffffff1673ffffffffffffffffffffffffffffffffffffffff16815260200190600101908083116102d8575b5050505050905090565b600260008273ffffffffffffffffffffffffffffffffffffffff1673ffffffffffffffffffffffffffffffffffffffff16815260200190815260200160002060009054906101000a900460ff16156103b9576040517f08c379a00000000000000000000000000000000000000000000000000000000081526004016103b09061066a565b60405180910390fd5b6001819080600181540180825580915050600190039060005260206000200160009091909190916101000a81548173ffffffffffffffffffffffffffffffffffffffff021916908373ffffffffffffffffffffffffffffffffffffffff1602179055506001600260008373ffffffffffffffffffffffffffffffffffffffff1673ffffffffffffffffffffffffffffffffffffffff16815260200190815260200160002060006101000a81548160ff02191690831515021790555050565b600080fd5b600073ffffffffffffffffffffffffffffffffffffffff82169050919050565b60006104a78261047c565b9050919050565b6104b78161049c565b81146104c257600080fd5b50565b6000813590506104d4816104ae565b92915050565b6000602082840312156104f0576104ef610477565b5b60006104fe848285016104c5565b91505092915050565b600081519050919050565b600082825260208201905092915050565b6000819050602082019050919050565b61053c8161049c565b82525050565b600061054e8383610533565b60208301905092915050565b6000602082019050919050565b600061057282610507565b61057c8185610512565b935061058783610523565b8060005b838110156105b857815161059f8882610542565b97506105aa8361055a565b92505060018101905061058b565b5085935050505092915050565b600060208201905081810360008301526105df8184610567565b905092915050565b600082825260208201905092915050565b7f5b557365725d5b416464726573734572725d3a4365727469666963617465206160008201527f6c72656164792065786973747300000000000000000000000000000000000000602082015250565b6000610654602d836105e7565b915061065f826105f8565b604082019050919050565b6000602082019050818103600083015261068381610647565b905091905056fea26469706673582212208bb99d48a1ade4492c7e013b59c92341be425f28311203b4d6a4075242efc26064736f6c634300080d0033",
  "immutableReferences": {},
  "source": "// SPDX-License-Identifier: MIT\r\npragma solidity >=0.4.22 <0.9.0;\r\n\r\n/**\r\n * @title User Contract\r\n * @notice This contract represents a user's profile, storing certified certificates and encrypted view codes.\r\n */\r\ncontract User {\r\n    address private owner;\r\n\r\n    // Array to store addresses of certified certificates\r\n    address[] private certificatesList;\r\n    mapping(address => bool) private isInCertificatesList; // Track existence\r\n\r\n    // Array to store addresses of certified certificates\r\n    address[] private certifiedCertificates;\r\n    mapping(address => bool) private isInCertifiedList; // Track existence\r\n\r\n\r\n    /**\r\n     * @notice Modifier to restrict functions to the contract owner.\r\n     */\r\n    modifier onlyOwner() {\r\n        require(msg.sender == owner, \"[User][AddressErr]:Not the contract owner.\");\r\n        _;\r\n    }\r\n    \r\n    /**\r\n     * @notice Initializes the User contract and sets the contract owner.\r\n     */\r\n    constructor() {\r\n        owner = msg.sender;\r\n    }\r\n    /**\r\n     * @notice Adds a certificate to the general list.\r\n     * @param _certificate The address of the certificate to add.\r\n     * @dev Reverts if the certificate already exists.\r\n     */\r\n    function addCertificate(address _certificate) external {\r\n        require(!isInCertificatesList[_certificate], \"[User][AddressErr]:Certificate already exists\");\r\n        certificatesList.push(_certificate);\r\n        isInCertificatesList[_certificate] = true;\r\n    }\r\n\r\n    /**\r\n     * @notice Adds a certificate to the certified list.\r\n     * @param _certificate The address of the certificate to certify.\r\n     * @dev Reverts if the certificate is already certified.\r\n     */\r\n    function addCertifiedCertificate(address _certificate) external {\r\n        require(!isInCertifiedList[_certificate], \"[User][AddressErr]:Certificate already exists\");\r\n        certifiedCertificates.push(_certificate);\r\n        isInCertifiedList[_certificate] = true;\r\n    }\r\n\r\n    /**\r\n     * @notice Gets all stored certificates.\r\n     * @return certificates An array of certificate addresses.\r\n     * @dev Output example: [\"0x123...\", \"0x456...\", \"0x789...\"]\r\n     */\r\n    function getCertificates() external view returns (address[] memory certificates) {\r\n        return certificatesList;\r\n    }\r\n\r\n    /*\r\n     * @notice Gets all certified certificates.\r\n     * @return certifiedCerts An array of certified certificate addresses.\r\n     * @dev Output example: [\"0xabc...\", \"0xdef...\", \"0xghi...\"]\r\n     */\r\n    function getCertifiedCertificates() external view returns (address[] memory certifiedCerts) {\r\n        return certifiedCertificates;\r\n    }\r\n\r\n}\r\n",
  "sourcePath": "C:\\Users\\nicky\\Desktop\\net-authorizing-system\\contracts\\User.sol",
  "compiler": {
    "name": "solc",
    "version": "0.8.13+commit.abaa5c0e.Emscripten.clang"
  },
  "schemaVersion": "3.4.16",
  "updatedAt": "2025-02-16T18:51:46.780Z",
  "networkType": "ethereum",
  "devdoc": {
    "kind": "dev",
    "methods": {
      "addCertificate(address)": {
        "details": "Reverts if the certificate already exists.",
        "params": {
          "_certificate": "The address of the certificate to add."
        }
      },
      "addCertifiedCertificate(address)": {
        "details": "Reverts if the certificate is already certified.",
        "params": {
          "_certificate": "The address of the certificate to certify."
        }
      },
      "getCertificates()": {
        "details": "Output example: [\"0x123...\", \"0x456...\", \"0x789...\"]",
        "returns": {
          "certificates": "An array of certificate addresses."
        }
      }
    },
    "title": "User Contract",
    "version": 1
  },
  "userdoc": {
    "kind": "user",
    "methods": {
      "addCertificate(address)": {
        "notice": "Adds a certificate to the general list."
      },
      "addCertifiedCertificate(address)": {
        "notice": "Adds a certificate to the certified list."
      },
      "constructor": {
        "notice": "Initializes the User contract and sets the contract owner."
      },
      "getCertificates()": {
        "notice": "Gets all stored certificates."
      }
    },
    "notice": "This contract represents a user's profile, storing certified certificates and encrypted view codes.",
    "version": 1
  }
}