{
  "contractName": "User",
  "abi": [
    {
      "inputs": [
        {
          "internalType": "address",
          "name": "_initialOwner",
          "type": "address"
        },
        {
          "internalType": "string",
          "name": "_publicKey",
          "type": "string"
        },
        {
          "internalType": "address",
          "name": "_certificateAddress",
          "type": "address"
        }
      ],
      "stateMutability": "nonpayable",
      "type": "constructor"
    },
    {
      "inputs": [
        {
          "internalType": "address",
          "name": "owner",
          "type": "address"
        }
      ],
      "name": "OwnableInvalidOwner",
      "type": "error"
    },
    {
      "inputs": [
        {
          "internalType": "address",
          "name": "account",
          "type": "address"
        }
      ],
      "name": "OwnableUnauthorizedAccount",
      "type": "error"
    },
    {
      "anonymous": false,
      "inputs": [
        {
          "indexed": true,
          "internalType": "address",
          "name": "previousOwner",
          "type": "address"
        },
        {
          "indexed": true,
          "internalType": "address",
          "name": "newOwner",
          "type": "address"
        }
      ],
      "name": "OwnershipTransferred",
      "type": "event"
    },
    {
      "inputs": [],
      "name": "certificateAddress",
      "outputs": [
        {
          "internalType": "address",
          "name": "",
          "type": "address"
        }
      ],
      "stateMutability": "view",
      "type": "function"
    },
    {
      "inputs": [
        {
          "internalType": "uint256",
          "name": "",
          "type": "uint256"
        }
      ],
      "name": "certified",
      "outputs": [
        {
          "internalType": "string",
          "name": "",
          "type": "string"
        }
      ],
      "stateMutability": "view",
      "type": "function"
    },
    {
      "inputs": [],
      "name": "owner",
      "outputs": [
        {
          "internalType": "address",
          "name": "",
          "type": "address"
        }
      ],
      "stateMutability": "view",
      "type": "function"
    },
    {
      "inputs": [],
      "name": "publicKey",
      "outputs": [
        {
          "internalType": "string",
          "name": "",
          "type": "string"
        }
      ],
      "stateMutability": "view",
      "type": "function"
    },
    {
      "inputs": [],
      "name": "renounceOwnership",
      "outputs": [],
      "stateMutability": "nonpayable",
      "type": "function"
    },
    {
      "inputs": [
        {
          "internalType": "address",
          "name": "newOwner",
          "type": "address"
        }
      ],
      "name": "transferOwnership",
      "outputs": [],
      "stateMutability": "nonpayable",
      "type": "function"
    },
    {
      "inputs": [
        {
          "internalType": "string",
          "name": "_newPublicKey",
          "type": "string"
        }
      ],
      "name": "updateAKey",
      "outputs": [],
      "stateMutability": "nonpayable",
      "type": "function"
    },
    {
      "inputs": [
        {
          "internalType": "string",
          "name": "_certifiedDoc",
          "type": "string"
        }
      ],
      "name": "addCertified",
      "outputs": [],
      "stateMutability": "nonpayable",
      "type": "function"
    },
    {
      "inputs": [
        {
          "internalType": "uint256",
          "name": "index",
          "type": "uint256"
        }
      ],
      "name": "getCertified",
      "outputs": [
        {
          "internalType": "string",
          "name": "",
          "type": "string"
        }
      ],
      "stateMutability": "view",
      "type": "function"
    },
    {
      "inputs": [
        {
          "internalType": "address",
          "name": "_newCertificateAddress",
          "type": "address"
        }
      ],
      "name": "updateCertificateAddress",
      "outputs": [],
      "stateMutability": "nonpayable",
      "type": "function"
    }
  ],
  "bytecode": "0x608060405234801562000010575f80fd5b506040516200152d3803806200152d8339818101604052810190620000369190620003be565b825f73ffffffffffffffffffffffffffffffffffffffff168173ffffffffffffffffffffffffffffffffffffffff1603620000aa575f6040517f1e4fbdf7000000000000000000000000000000000000000000000000000000008152600401620000a1919062000447565b60405180910390fd5b620000bb816200011760201b60201c565b508160019081620000cd919062000699565b508060035f6101000a81548173ffffffffffffffffffffffffffffffffffffffff021916908373ffffffffffffffffffffffffffffffffffffffff1602179055505050506200077d565b5f805f9054906101000a900473ffffffffffffffffffffffffffffffffffffffff169050815f806101000a81548173ffffffffffffffffffffffffffffffffffffffff021916908373ffffffffffffffffffffffffffffffffffffffff1602179055508173ffffffffffffffffffffffffffffffffffffffff168173ffffffffffffffffffffffffffffffffffffffff167f8be0079c531659141344cd1fd0a4f28419497f9722a3daafe3b4186f6b6457e060405160405180910390a35050565b5f604051905090565b5f80fd5b5f80fd5b5f73ffffffffffffffffffffffffffffffffffffffff82169050919050565b5f6200021482620001e9565b9050919050565b620002268162000208565b811462000231575f80fd5b50565b5f8151905062000244816200021b565b92915050565b5f80fd5b5f80fd5b5f601f19601f8301169050919050565b7f4e487b71000000000000000000000000000000000000000000000000000000005f52604160045260245ffd5b6200029a8262000252565b810181811067ffffffffffffffff82111715620002bc57620002bb62000262565b5b80604052505050565b5f620002d0620001d8565b9050620002de82826200028f565b919050565b5f67ffffffffffffffff8211156200030057620002ff62000262565b5b6200030b8262000252565b9050602081019050919050565b5f5b83811015620003375780820151818401526020810190506200031a565b5f8484015250505050565b5f620003586200035284620002e3565b620002c5565b9050828152602081018484840111156200037757620003766200024e565b5b6200038484828562000318565b509392505050565b5f82601f830112620003a357620003a26200024a565b5b8151620003b584826020860162000342565b91505092915050565b5f805f60608486031215620003d857620003d7620001e1565b5b5f620003e78682870162000234565b935050602084015167ffffffffffffffff8111156200040b576200040a620001e5565b5b62000419868287016200038c565b92505060406200042c8682870162000234565b9150509250925092565b620004418162000208565b82525050565b5f6020820190506200045c5f83018462000436565b92915050565b5f81519050919050565b7f4e487b71000000000000000000000000000000000000000000000000000000005f52602260045260245ffd5b5f6002820490506001821680620004b157607f821691505b602082108103620004c757620004c66200046c565b5b50919050565b5f819050815f5260205f209050919050565b5f6020601f8301049050919050565b5f82821b905092915050565b5f600883026200052b7fffffffffffffffffffffffffffffffffffffffffffffffffffffffffffffffff82620004ee565b620005378683620004ee565b95508019841693508086168417925050509392505050565b5f819050919050565b5f819050919050565b5f620005816200057b62000575846200054f565b62000558565b6200054f565b9050919050565b5f819050919050565b6200059c8362000561565b620005b4620005ab8262000588565b848454620004fa565b825550505050565b5f90565b620005ca620005bc565b620005d781848462000591565b505050565b5b81811015620005fe57620005f25f82620005c0565b600181019050620005dd565b5050565b601f8211156200064d576200061781620004cd565b6200062284620004df565b8101602085101562000632578190505b6200064a6200064185620004df565b830182620005dc565b50505b505050565b5f82821c905092915050565b5f6200066f5f198460080262000652565b1980831691505092915050565b5f6200068983836200065e565b9150826002028217905092915050565b620006a48262000462565b67ffffffffffffffff811115620006c057620006bf62000262565b5b620006cc825462000499565b620006d982828562000602565b5f60209050601f8311600181146200070f575f8415620006fa578287015190505b6200070685826200067c565b86555062000775565b601f1984166200071f86620004cd565b5f5b82811015620007485784890151825560018201915060208501945060208101905062000721565b8683101562000768578489015162000764601f8916826200065e565b8355505b6001600288020188555050505b505050505050565b610da2806200078b5f395ff3fe608060405234801561000f575f80fd5b506004361061009b575f3560e01c8063715018a611610064578063715018a6146101575780638da5cb5b14610161578063e649ce951461017f578063e8660dcf1461019b578063f2fde38b146101b75761009b565b80623f82021461009f5780631fd05066146100cf5780632707193b146100ff5780635a4922221461011d57806363ffab3114610139575b5f80fd5b6100b960048036038101906100b49190610719565b6101d3565b6040516100c691906107ce565b60405180910390f35b6100e960048036038101906100e49190610719565b610279565b6040516100f691906107ce565b60405180910390f35b610107610374565b604051610114919061082d565b60405180910390f35b61013760048036038101906101329190610870565b610399565b005b6101416103e4565b60405161014e91906107ce565b60405180910390f35b61015f610470565b005b610169610483565b604051610176919061082d565b60405180910390f35b610199600480360381019061019491906109c7565b6104aa565b005b6101b560048036038101906101b091906109c7565b6104e7565b005b6101d160048036038101906101cc9190610870565b610502565b005b600281815481106101e2575f80fd5b905f5260205f20015f9150905080546101fa90610a3b565b80601f016020809104026020016040519081016040528092919081815260200182805461022690610a3b565b80156102715780601f1061024857610100808354040283529160200191610271565b820191905f5260205f20905b81548152906001019060200180831161025457829003601f168201915b505050505081565b6060610283610586565b60028054905082106102ca576040517f08c379a00000000000000000000000000000000000000000000000000000000081526004016102c190610ab5565b60405180910390fd5b600282815481106102de576102dd610ad3565b5b905f5260205f200180546102f190610a3b565b80601f016020809104026020016040519081016040528092919081815260200182805461031d90610a3b565b80156103685780601f1061033f57610100808354040283529160200191610368565b820191905f5260205f20905b81548152906001019060200180831161034b57829003601f168201915b50505050509050919050565b60035f9054906101000a900473ffffffffffffffffffffffffffffffffffffffff1681565b6103a1610586565b8060035f6101000a81548173ffffffffffffffffffffffffffffffffffffffff021916908373ffffffffffffffffffffffffffffffffffffffff16021790555050565b600180546103f190610a3b565b80601f016020809104026020016040519081016040528092919081815260200182805461041d90610a3b565b80156104685780601f1061043f57610100808354040283529160200191610468565b820191905f5260205f20905b81548152906001019060200180831161044b57829003601f168201915b505050505081565b610478610586565b6104815f61060d565b565b5f805f9054906101000a900473ffffffffffffffffffffffffffffffffffffffff16905090565b6104b2610586565b600281908060018154018082558091505060019003905f5260205f20015f9091909190915090816104e39190610c9d565b5050565b6104ef610586565b80600190816104fe9190610c9d565b5050565b61050a610586565b5f73ffffffffffffffffffffffffffffffffffffffff168173ffffffffffffffffffffffffffffffffffffffff160361057a575f6040517f1e4fbdf7000000000000000000000000000000000000000000000000000000008152600401610571919061082d565b60405180910390fd5b6105838161060d565b50565b61058e6106ce565b73ffffffffffffffffffffffffffffffffffffffff166105ac610483565b73ffffffffffffffffffffffffffffffffffffffff161461060b576105cf6106ce565b6040517f118cdaa7000000000000000000000000000000000000000000000000000000008152600401610602919061082d565b60405180910390fd5b565b5f805f9054906101000a900473ffffffffffffffffffffffffffffffffffffffff169050815f806101000a81548173ffffffffffffffffffffffffffffffffffffffff021916908373ffffffffffffffffffffffffffffffffffffffff1602179055508173ffffffffffffffffffffffffffffffffffffffff168173ffffffffffffffffffffffffffffffffffffffff167f8be0079c531659141344cd1fd0a4f28419497f9722a3daafe3b4186f6b6457e060405160405180910390a35050565b5f33905090565b5f604051905090565b5f80fd5b5f80fd5b5f819050919050565b6106f8816106e6565b8114610702575f80fd5b50565b5f81359050610713816106ef565b92915050565b5f6020828403121561072e5761072d6106de565b5b5f61073b84828501610705565b91505092915050565b5f81519050919050565b5f82825260208201905092915050565b5f5b8381101561077b578082015181840152602081019050610760565b5f8484015250505050565b5f601f19601f8301169050919050565b5f6107a082610744565b6107aa818561074e565b93506107ba81856020860161075e565b6107c381610786565b840191505092915050565b5f6020820190508181035f8301526107e68184610796565b905092915050565b5f73ffffffffffffffffffffffffffffffffffffffff82169050919050565b5f610817826107ee565b9050919050565b6108278161080d565b82525050565b5f6020820190506108405f83018461081e565b92915050565b61084f8161080d565b8114610859575f80fd5b50565b5f8135905061086a81610846565b92915050565b5f60208284031215610885576108846106de565b5b5f6108928482850161085c565b91505092915050565b5f80fd5b5f80fd5b7f4e487b71000000000000000000000000000000000000000000000000000000005f52604160045260245ffd5b6108d982610786565b810181811067ffffffffffffffff821117156108f8576108f76108a3565b5b80604052505050565b5f61090a6106d5565b905061091682826108d0565b919050565b5f67ffffffffffffffff821115610935576109346108a3565b5b61093e82610786565b9050602081019050919050565b828183375f83830152505050565b5f61096b6109668461091b565b610901565b9050828152602081018484840111156109875761098661089f565b5b61099284828561094b565b509392505050565b5f82601f8301126109ae576109ad61089b565b5b81356109be848260208601610959565b91505092915050565b5f602082840312156109dc576109db6106de565b5b5f82013567ffffffffffffffff8111156109f9576109f86106e2565b5b610a058482850161099a565b91505092915050565b7f4e487b71000000000000000000000000000000000000000000000000000000005f52602260045260245ffd5b5f6002820490506001821680610a5257607f821691505b602082108103610a6557610a64610a0e565b5b50919050565b7f496e646578206f7574206f6620626f756e6473000000000000000000000000005f82015250565b5f610a9f60138361074e565b9150610aaa82610a6b565b602082019050919050565b5f6020820190508181035f830152610acc81610a93565b9050919050565b7f4e487b71000000000000000000000000000000000000000000000000000000005f52603260045260245ffd5b5f819050815f5260205f209050919050565b5f6020601f8301049050919050565b5f82821b905092915050565b5f60088302610b5c7fffffffffffffffffffffffffffffffffffffffffffffffffffffffffffffffff82610b21565b610b668683610b21565b95508019841693508086168417925050509392505050565b5f819050919050565b5f610ba1610b9c610b97846106e6565b610b7e565b6106e6565b9050919050565b5f819050919050565b610bba83610b87565b610bce610bc682610ba8565b848454610b2d565b825550505050565b5f90565b610be2610bd6565b610bed818484610bb1565b505050565b5b81811015610c1057610c055f82610bda565b600181019050610bf3565b5050565b601f821115610c5557610c2681610b00565b610c2f84610b12565b81016020851015610c3e578190505b610c52610c4a85610b12565b830182610bf2565b50505b505050565b5f82821c905092915050565b5f610c755f1984600802610c5a565b1980831691505092915050565b5f610c8d8383610c66565b9150826002028217905092915050565b610ca682610744565b67ffffffffffffffff811115610cbf57610cbe6108a3565b5b610cc98254610a3b565b610cd4828285610c14565b5f60209050601f831160018114610d05575f8415610cf3578287015190505b610cfd8582610c82565b865550610d64565b601f198416610d1386610b00565b5f5b82811015610d3a57848901518255600182019150602085019450602081019050610d15565b86831015610d575784890151610d53601f891682610c66565b8355505b6001600288020188555050505b50505050505056fea26469706673582212201dfe706da55e42521586e900b87ec5e06889fd69bdbe2f7f43a5c3a2d3339feb64736f6c63430008150033",
  "immutableReferences": {},
  "source": "// SPDX-License-Identifier: MIT\r\npragma solidity ^0.8.0;\r\n\r\nimport \"@openzeppelin/contracts/access/Ownable.sol\";\r\n\r\n/**\r\n * @title User Contract\r\n * @notice This contract represents a user profile in the decentralized identity system.\r\n * It stores the user's public key, an array of certified document types, and links to certificate addresses.\r\n * Only the contract owner (the user) can update sensitive data.\r\n */\r\ncontract User is Ownable {\r\n    // User's public key for asymmetric encryption\r\n    string public publicKey;\r\n\r\n    // Array to store types or identifiers of certified documents\r\n    string[] public certified;\r\n\r\n    // Address linked to the user's certificate\r\n    address public certificateAddress;\r\n\r\n    /**\r\n     * @notice Initializes the User contract with the owner's address, public key, and certificate address.\r\n     * @param _initialOwner The initial owner of the contract.\r\n     * @param _publicKey The public key associated with the user.\r\n     * @param _certificateAddress The certificate address linked to this user (if any).\r\n     */\r\n    constructor(\r\n        address _initialOwner,\r\n        string memory _publicKey,\r\n        address _certificateAddress\r\n    ) Ownable(_initialOwner) {\r\n        publicKey = _publicKey;\r\n        certificateAddress = _certificateAddress;\r\n    }\r\n\r\n    /**\r\n     * @notice Updates the user's public key.\r\n     * @dev Only the contract owner can call this function.\r\n     * @param _newPublicKey The new public key to be set.\r\n     */\r\n    function updateAKey(string memory _newPublicKey) external onlyOwner {\r\n        publicKey = _newPublicKey;\r\n    }\r\n\r\n    /**\r\n     * @notice Adds a new certified document type/identifier to the user's record.\r\n     * @dev Only the contract owner can add certifications.\r\n     * @param _certifiedDoc A string representing the certified document type.\r\n     */\r\n    function addCertified(string memory _certifiedDoc) external onlyOwner {\r\n        certified.push(_certifiedDoc);\r\n    }\r\n\r\n    /**\r\n     * @notice Retrieves a certified document type by index.\r\n     * @dev Only the contract owner can view individual certified entries.\r\n     * @param index The index of the certified document in the array.\r\n     * @return The certified document type as a string.\r\n     */\r\n    function getCertified(uint index) external view onlyOwner returns (string memory) {\r\n        require(index < certified.length, \"Index out of bounds\");\r\n        return certified[index];\r\n    }\r\n\r\n    /**\r\n     * @notice Updates the certificate address linked to the user.\r\n     * @dev Only the contract owner can update this field.\r\n     * @param _newCertificateAddress The new certificate address.\r\n     */\r\n    function updateCertificateAddress(address _newCertificateAddress) external onlyOwner {\r\n        certificateAddress = _newCertificateAddress;\r\n    }\r\n}\r\n",
  "sourcePath": "C:\\Users\\nicky\\Desktop\\net-authorizing-system\\contracts\\User.sol",
  "compiler": {
    "name": "solc",
    "version": "0.8.21+commit.d9974bed.Emscripten.clang"
  },
  "schemaVersion": "3.4.16",
  "updatedAt": "2025-02-05T11:31:16.191Z",
  "devdoc": {
    "errors": {
      "OwnableInvalidOwner(address)": [
        {
          "details": "The owner is not a valid owner account. (eg. `address(0)`)"
        }
      ],
      "OwnableUnauthorizedAccount(address)": [
        {
          "details": "The caller account is not authorized to perform an operation."
        }
      ]
    },
    "kind": "dev",
    "methods": {
      "addCertified(string)": {
        "details": "Only the contract owner can add certifications.",
        "params": {
          "_certifiedDoc": "A string representing the certified document type."
        }
      },
      "constructor": {
        "params": {
          "_certificateAddress": "The certificate address linked to this user (if any).",
          "_initialOwner": "The initial owner of the contract.",
          "_publicKey": "The public key associated with the user."
        }
      },
      "getCertified(uint256)": {
        "details": "Only the contract owner can view individual certified entries.",
        "params": {
          "index": "The index of the certified document in the array."
        },
        "returns": {
          "_0": "The certified document type as a string."
        }
      },
      "owner()": {
        "details": "Returns the address of the current owner."
      },
      "renounceOwnership()": {
        "details": "Leaves the contract without owner. It will not be possible to call `onlyOwner` functions. Can only be called by the current owner. NOTE: Renouncing ownership will leave the contract without an owner, thereby disabling any functionality that is only available to the owner."
      },
      "transferOwnership(address)": {
        "details": "Transfers ownership of the contract to a new account (`newOwner`). Can only be called by the current owner."
      },
      "updateAKey(string)": {
        "details": "Only the contract owner can call this function.",
        "params": {
          "_newPublicKey": "The new public key to be set."
        }
      },
      "updateCertificateAddress(address)": {
        "details": "Only the contract owner can update this field.",
        "params": {
          "_newCertificateAddress": "The new certificate address."
        }
      }
    },
    "title": "User Contract",
    "version": 1
  },
  "userdoc": {
    "kind": "user",
    "methods": {
      "addCertified(string)": {
        "notice": "Adds a new certified document type/identifier to the user's record."
      },
      "constructor": {
        "notice": "Initializes the User contract with the owner's address, public key, and certificate address."
      },
      "getCertified(uint256)": {
        "notice": "Retrieves a certified document type by index."
      },
      "updateAKey(string)": {
        "notice": "Updates the user's public key."
      },
      "updateCertificateAddress(address)": {
        "notice": "Updates the certificate address linked to the user."
      }
    },
    "notice": "This contract represents a user profile in the decentralized identity system. It stores the user's public key, an array of certified document types, and links to certificate addresses. Only the contract owner (the user) can update sensitive data.",
    "version": 1
  }
}